{
  "contractName": "FlightSuretyApp",
  "abi": [
    {
      "constant": true,
      "inputs": [
        {
          "name": "",
          "type": "address"
        },
        {
          "name": "",
          "type": "address"
        }
      ],
      "name": "hasVoted",
      "outputs": [
        {
          "name": "",
          "type": "bool"
        }
      ],
      "payable": false,
      "stateMutability": "view",
      "type": "function"
    },
    {
      "constant": true,
      "inputs": [
        {
          "name": "",
          "type": "address"
        }
      ],
      "name": "airlineNames",
      "outputs": [
        {
          "name": "",
          "type": "string"
        }
      ],
      "payable": false,
      "stateMutability": "view",
      "type": "function"
    },
    {
      "constant": true,
      "inputs": [],
      "name": "REGISTRATION_FEE",
      "outputs": [
        {
          "name": "",
          "type": "uint256"
        }
      ],
      "payable": false,
      "stateMutability": "view",
      "type": "function"
    },
    {
      "constant": true,
      "inputs": [
        {
          "name": "",
          "type": "address"
        }
      ],
      "name": "isInQueue",
      "outputs": [
        {
          "name": "",
          "type": "bool"
        }
      ],
      "payable": false,
      "stateMutability": "view",
      "type": "function"
    },
    {
      "constant": true,
      "inputs": [
        {
          "name": "",
          "type": "address"
        }
      ],
      "name": "votesPerAirline",
      "outputs": [
        {
          "name": "",
          "type": "uint256"
        }
      ],
      "payable": false,
      "stateMutability": "view",
      "type": "function"
    },
    {
      "inputs": [
        {
          "name": "_flightDataContractAddress",
          "type": "address"
        }
      ],
      "payable": false,
      "stateMutability": "nonpayable",
      "type": "constructor"
    },
    {
      "anonymous": false,
      "inputs": [
        {
          "indexed": true,
          "name": "airline",
          "type": "address"
        },
        {
          "indexed": false,
          "name": "votesRatio",
          "type": "uint256"
        }
      ],
      "name": "AirlineAddedToRegisterationQueue",
      "type": "event"
    },
    {
      "anonymous": false,
      "inputs": [
        {
          "indexed": true,
          "name": "airline",
          "type": "address"
        }
      ],
      "name": "AirlineRegisteredWithoutVotes",
      "type": "event"
    },
    {
      "anonymous": false,
      "inputs": [
        {
          "indexed": true,
          "name": "airline",
          "type": "address"
        },
        {
          "indexed": false,
          "name": "votes",
          "type": "uint256"
        }
      ],
      "name": "AirlineRegisteredWithVotes",
      "type": "event"
    },
    {
      "anonymous": false,
      "inputs": [
        {
          "indexed": true,
          "name": "airlineVoting",
          "type": "address"
        },
        {
          "indexed": true,
          "name": "airlineVoted",
          "type": "address"
        }
      ],
      "name": "AirlineVoted",
      "type": "event"
    },
    {
      "anonymous": false,
      "inputs": [
        {
          "indexed": true,
          "name": "airline",
          "type": "address"
        },
        {
          "indexed": false,
          "name": "value",
          "type": "uint256"
        }
      ],
      "name": "AirlineFullyFunded",
      "type": "event"
    },
    {
      "anonymous": false,
      "inputs": [
        {
          "indexed": true,
          "name": "airline",
          "type": "address"
        },
        {
          "indexed": false,
          "name": "flightNumber",
          "type": "string"
        },
        {
          "indexed": false,
          "name": "timeStamp",
          "type": "string"
        }
      ],
      "name": "FlightRegistered",
      "type": "event"
    },
    {
      "anonymous": false,
      "inputs": [
        {
          "indexed": true,
          "name": "passenger",
          "type": "address"
        },
        {
          "indexed": false,
          "name": "name",
          "type": "string"
        },
        {
          "indexed": false,
          "name": "airlineAddress",
          "type": "address"
        },
        {
          "indexed": false,
          "name": "key",
          "type": "bytes32"
        }
      ],
      "name": "PassengerRegistered",
      "type": "event"
    },
    {
      "anonymous": false,
      "inputs": [
        {
          "indexed": true,
          "name": "passenger",
          "type": "address"
        },
        {
          "indexed": false,
          "name": "flightNumber",
          "type": "bytes32"
        },
        {
          "indexed": false,
          "name": "amount",
          "type": "uint256"
        }
      ],
      "name": "InsurancePurchased",
      "type": "event"
    },
    {
      "anonymous": false,
      "inputs": [
        {
          "indexed": false,
          "name": "airline",
          "type": "address"
        },
        {
          "indexed": false,
          "name": "flight",
          "type": "string"
        },
        {
          "indexed": false,
          "name": "timestamp",
          "type": "string"
        },
        {
          "indexed": false,
          "name": "status",
          "type": "uint8"
        }
      ],
      "name": "FlightStatusInfo",
      "type": "event"
    },
    {
      "anonymous": false,
      "inputs": [
        {
          "indexed": false,
          "name": "airline",
          "type": "address"
        },
        {
          "indexed": false,
          "name": "flight",
          "type": "string"
        },
        {
          "indexed": false,
          "name": "timestamp",
          "type": "string"
        },
        {
          "indexed": false,
          "name": "status",
          "type": "uint8"
        }
      ],
      "name": "OracleReport",
      "type": "event"
    },
    {
      "anonymous": false,
      "inputs": [
        {
          "indexed": false,
          "name": "index",
          "type": "uint8"
        },
        {
          "indexed": false,
          "name": "airline",
          "type": "address"
        },
        {
          "indexed": false,
          "name": "flight",
          "type": "string"
        },
        {
          "indexed": false,
          "name": "timestamp",
          "type": "string"
        }
      ],
      "name": "OracleRequest",
      "type": "event"
    },
    {
      "constant": true,
      "inputs": [],
      "name": "getOperationalStatus",
      "outputs": [
        {
          "name": "",
          "type": "bool"
        }
      ],
      "payable": false,
      "stateMutability": "view",
      "type": "function"
    },
    {
      "constant": false,
      "inputs": [
        {
          "name": "mode",
          "type": "bool"
        }
      ],
      "name": "setOperatingStatus",
      "outputs": [],
      "payable": false,
      "stateMutability": "nonpayable",
      "type": "function"
    },
    {
      "constant": false,
      "inputs": [
        {
          "name": "name",
          "type": "string"
        },
        {
          "name": "airlineAddress",
          "type": "address"
        }
      ],
      "name": "registerAirline",
      "outputs": [],
      "payable": false,
      "stateMutability": "nonpayable",
      "type": "function"
    },
    {
      "constant": false,
      "inputs": [
        {
          "name": "airlineAddress",
          "type": "address"
        }
      ],
      "name": "voteAirline",
      "outputs": [],
      "payable": false,
      "stateMutability": "nonpayable",
      "type": "function"
    },
    {
      "constant": true,
      "inputs": [
        {
          "name": "_airlineAddress",
          "type": "address"
        }
      ],
      "name": "getAirlineRegistrationStatus",
      "outputs": [
        {
          "name": "",
          "type": "bool"
        }
      ],
      "payable": false,
      "stateMutability": "view",
      "type": "function"
    },
    {
      "constant": true,
      "inputs": [
        {
          "name": "votingAirline",
          "type": "address"
        },
        {
          "name": "votedAirline",
          "type": "address"
        }
      ],
      "name": "checkIfVoted",
      "outputs": [
        {
          "name": "",
          "type": "bool"
        }
      ],
      "payable": false,
      "stateMutability": "view",
      "type": "function"
    },
    {
      "constant": false,
      "inputs": [],
      "name": "fundAirline",
      "outputs": [],
      "payable": true,
      "stateMutability": "payable",
      "type": "function"
    },
    {
      "constant": false,
      "inputs": [
        {
          "name": "flightNumber",
          "type": "string"
        },
        {
          "name": "timeStamp",
          "type": "string"
        }
      ],
      "name": "registerFlight",
      "outputs": [],
      "payable": false,
      "stateMutability": "nonpayable",
      "type": "function"
    },
    {
      "constant": false,
      "inputs": [
        {
          "name": "_name",
          "type": "string"
        },
        {
          "name": "_airlineAddress",
          "type": "address"
        },
        {
          "name": "flightNumber",
          "type": "string"
        },
        {
          "name": "timeStamp",
          "type": "string"
        }
      ],
      "name": "registerPassenger",
      "outputs": [],
      "payable": true,
      "stateMutability": "payable",
      "type": "function"
    },
    {
      "constant": false,
      "inputs": [
        {
          "name": "_airlineAddress",
          "type": "address"
        },
        {
          "name": "flightNumber",
          "type": "string"
        },
        {
          "name": "timeStamp",
          "type": "string"
        },
        {
          "name": "_statusCode",
          "type": "uint8"
        }
      ],
      "name": "updateFlightStatusCode",
      "outputs": [],
      "payable": false,
      "stateMutability": "nonpayable",
      "type": "function"
    },
    {
      "constant": false,
      "inputs": [
        {
          "name": "_airlineAddress",
          "type": "address"
        },
        {
          "name": "flightNumber",
          "type": "string"
        },
        {
          "name": "timeStamp",
          "type": "string"
        }
      ],
      "name": "buyInsurance",
      "outputs": [],
      "payable": true,
      "stateMutability": "payable",
      "type": "function"
    },
    {
      "constant": true,
      "inputs": [
        {
          "name": "passengerAddress",
          "type": "address"
        },
        {
          "name": "_airlineAddress",
          "type": "address"
        },
        {
          "name": "flightNumber",
          "type": "string"
        },
        {
          "name": "timeStamp",
          "type": "string"
        }
      ],
      "name": "checkPassengerInsuranceStatus",
      "outputs": [
        {
          "name": "",
          "type": "bool"
        }
      ],
      "payable": false,
      "stateMutability": "view",
      "type": "function"
    },
    {
      "constant": false,
      "inputs": [
        {
          "name": "airline",
          "type": "address"
        },
        {
          "name": "flight",
          "type": "string"
        },
        {
          "name": "timestamp",
          "type": "string"
        }
      ],
      "name": "fetchFlightStatus",
      "outputs": [],
      "payable": false,
      "stateMutability": "nonpayable",
      "type": "function"
    },
    {
      "constant": false,
      "inputs": [],
      "name": "registerOracle",
      "outputs": [],
      "payable": true,
      "stateMutability": "payable",
      "type": "function"
    },
    {
      "constant": true,
      "inputs": [],
      "name": "getMyIndexes",
      "outputs": [
        {
          "name": "",
          "type": "uint8[3]"
        }
      ],
      "payable": false,
      "stateMutability": "view",
      "type": "function"
    },
    {
      "constant": false,
      "inputs": [
        {
          "name": "index",
          "type": "uint8"
        },
        {
          "name": "airline",
          "type": "address"
        },
        {
          "name": "flight",
          "type": "string"
        },
        {
          "name": "timestamp",
          "type": "string"
        },
        {
          "name": "statusCode",
          "type": "uint8"
        }
      ],
      "name": "submitOracleResponse",
      "outputs": [],
      "payable": false,
      "stateMutability": "nonpayable",
      "type": "function"
    }
  ],
  "bytecode": "0x608060405260016000806101000a81548160ff021916908315150217905550678ac7230489e80000600155670de0b6b3a764000060025560046003556000600a60006101000a81548160ff021916908360ff16021790555034801561006357600080fd5b50604051602080620062b48339810180604052810190808051906020019092919050505033600460006101000a81548173ffffffffffffffffffffffffffffffffffffffff021916908373ffffffffffffffffffffffffffffffffffffffff16021790555080600560006101000a81548173ffffffffffffffffffffffffffffffffffffffff021916908373ffffffffffffffffffffffffffffffffffffffff1602179055505061619a806200011a6000396000f30060806040526004361061011d576000357c0100000000000000000000000000000000000000000000000000000000900463ffffffff1680630c982673146101225780630e2c412914610151578063110466ed146101ac5780631eeb8858146101db578063339d2590146102365780633d5666fb146102405780634d4d2b1c146102a65780634e2fc67d1461032157806358121747146103dd5780635f1cc0e61461046a578063649fbb2a146104bd57806364b4f751146105385780637468f6cc146105635780637a229e4a146105e35780639ed1892714610656578063c9c7ffe414610660578063d71437cb1461070b578063d8ab5b8914610766578063dcb0f2dd146107a9578063f589165614610827578063f7273bf41461087a575b600080fd5b34801561012e57600080fd5b506101376108d1565b604051808215151515815260200191505060405180910390f35b34801561015d57600080fd5b506101aa600480360381019080803590602001908201803590602001919091929391929390803573ffffffffffffffffffffffffffffffffffffffff1690602001909291905050506108e7565b005b3480156101b857600080fd5b506101d960048036038101908080351515906020019092919050505061160d565b005b3480156101e757600080fd5b5061021c600480360381019080803573ffffffffffffffffffffffffffffffffffffffff1690602001909291905050506116ee565b604051808215151515815260200191505060405180910390f35b61023e61191d565b005b6102a4600480360381019080803573ffffffffffffffffffffffffffffffffffffffff169060200190929190803590602001908201803590602001919091929391929390803590602001908201803590602001919091929391929390505050611bb3565b005b3480156102b257600080fd5b50610307600480360381019080803573ffffffffffffffffffffffffffffffffffffffff169060200190929190803573ffffffffffffffffffffffffffffffffffffffff1690602001909291905050506124cc565b604051808215151515815260200191505060405180910390f35b34801561032d57600080fd5b50610362600480360381019080803573ffffffffffffffffffffffffffffffffffffffff1690602001909291905050506124fb565b6040518080602001828103825283818151815260200191508051906020019080838360005b838110156103a2578082015181840152602081019050610387565b50505050905090810190601f1680156103cf5780820380516001836020036101000a031916815260200191505b509250505060405180910390f35b3480156103e957600080fd5b50610468600480360381019080803560ff169060200190929190803573ffffffffffffffffffffffffffffffffffffffff169060200190929190803590602001908201803590602001919091929391929390803590602001908201803590602001919091929391929390803560ff1690602001909291905050506125ab565b005b34801561047657600080fd5b5061047f612c34565b6040518082600360200280838360005b838110156104aa57808201518184015260208101905061048f565b5050505090500191505060405180910390f35b3480156104c957600080fd5b5061051e600480360381019080803573ffffffffffffffffffffffffffffffffffffffff169060200190929190803573ffffffffffffffffffffffffffffffffffffffff169060200190929190505050612da9565b604051808215151515815260200191505060405180910390f35b34801561054457600080fd5b5061054d612ee6565b6040518082815260200191505060405180910390f35b34801561056f57600080fd5b506105e1600480360381019080803573ffffffffffffffffffffffffffffffffffffffff169060200190929190803590602001908201803590602001919091929391929390803590602001908201803590602001919091929391929390803560ff169060200190929190505050612ef2565b005b3480156105ef57600080fd5b50610654600480360381019080803573ffffffffffffffffffffffffffffffffffffffff169060200190929190803590602001908201803590602001919091929391929390803590602001908201803590602001919091929391929390505050613338565b005b61065e613732565b005b34801561066c57600080fd5b506106f1600480360381019080803573ffffffffffffffffffffffffffffffffffffffff169060200190929190803573ffffffffffffffffffffffffffffffffffffffff169060200190929190803590602001908201803590602001919091929391929390803590602001908201803590602001919091929391929390505050613aff565b604051808215151515815260200191505060405180910390f35b34801561071757600080fd5b5061074c600480360381019080803573ffffffffffffffffffffffffffffffffffffffff169060200190929190505050613f23565b604051808215151515815260200191505060405180910390f35b34801561077257600080fd5b506107a7600480360381019080803573ffffffffffffffffffffffffffffffffffffffff169060200190929190505050613f43565b005b610825600480360381019080803590602001908201803590602001919091929391929390803573ffffffffffffffffffffffffffffffffffffffff169060200190929190803590602001908201803590602001919091929391929390803590602001908201803590602001919091929391929390505050614769565b005b34801561083357600080fd5b5061087860048036038101908080359060200190820180359060200191909192939192939080359060200190820180359060200191909192939192939050505061516f565b005b34801561088657600080fd5b506108bb600480360381019080803573ffffffffffffffffffffffffffffffffffffffff16906020019092919050505061585e565b6040518082815260200191505060405180910390f35b60008060009054906101000a900460ff16905090565b6000806000809054906101000a900460ff161515610993576040517f08c379a00000000000000000000000000000000000000000000000000000000081526004018080602001828103825260258152602001807f436f6e74726163742069732063757272656e746c79206e6f74206f706572617481526020017f696f6e616c00000000000000000000000000000000000000000000000000000081525060400191505060405180910390fd5b6000600560009054906101000a900473ffffffffffffffffffffffffffffffffffffffff1673ffffffffffffffffffffffffffffffffffffffff1663bbb5716a336040518263ffffffff167c0100000000000000000000000000000000000000000000000000000000028152600401808273ffffffffffffffffffffffffffffffffffffffff1673ffffffffffffffffffffffffffffffffffffffff168152602001915050600060405180830381600087803b158015610a5257600080fd5b505af1158015610a66573d6000803e3d6000fd5b505050506040513d6000823e3d601f19601f820116820180604052506080811015610a9057600080fd5b810190808051640100000000811115610aa857600080fd5b82810190506020810184811115610abe57600080fd5b8151856001820283011164010000000082111715610adb57600080fd5b50509291906020018051906020019092919080519060200190929190805190602001909291905050509091925090505080915050801515610b84576040517f08c379a00000000000000000000000000000000000000000000000000000000081526004018080602001828103825260168152602001807f4169726c696e65206e6f7420726567697374657265640000000000000000000081525060200191505060405180910390fd5b83600080600560009054906101000a900473ffffffffffffffffffffffffffffffffffffffff1673ffffffffffffffffffffffffffffffffffffffff1663bbb5716a846040518263ffffffff167c0100000000000000000000000000000000000000000000000000000000028152600401808273ffffffffffffffffffffffffffffffffffffffff1673ffffffffffffffffffffffffffffffffffffffff168152602001915050600060405180830381600087803b158015610c4557600080fd5b505af1158015610c59573d6000803e3d6000fd5b505050506040513d6000823e3d601f19601f820116820180604052506080811015610c8357600080fd5b810190808051640100000000811115610c9b57600080fd5b82810190506020810184811115610cb157600080fd5b8151856001820283011164010000000082111715610cce57600080fd5b50509291906020018051906020019092919080519060200190929190805190602001909291905050509091925090505080925050600560009054906101000a900473ffffffffffffffffffffffffffffffffffffffff1673ffffffffffffffffffffffffffffffffffffffff166336773121846040518263ffffffff167c0100000000000000000000000000000000000000000000000000000000028152600401808273ffffffffffffffffffffffffffffffffffffffff1673ffffffffffffffffffffffffffffffffffffffff168152602001915050600060405180830381600087803b158015610dbf57600080fd5b505af1158015610dd3573d6000803e3d6000fd5b505050506040513d6000823e3d601f19601f820116820180604052506060811015610dfd57600080fd5b810190808051640100000000811115610e1557600080fd5b82810190506020810184811115610e2b57600080fd5b8151856001820283011164010000000082111715610e4857600080fd5b50509291906020018051906020019092919080519060200190929190505050909150508091505081151515610f0b576040517f08c379a00000000000000000000000000000000000000000000000000000000081526004018080602001828103825260308152602001807f54686973206164647265737320697320616c72656164792074616b656e20627981526020017f20616e6f74686572206169726c696e650000000000000000000000000000000081525060400191505060405180910390fd5b80151515610fa7576040517f08c379a00000000000000000000000000000000000000000000000000000000081526004018080602001828103825260328152602001807f54686973206164647265737320697320616c72656164792074616b656e20627981526020017f20616e6f746865722070617373656e676572000000000000000000000000000081525060400191505060405180910390fd5b600354600560009054906101000a900473ffffffffffffffffffffffffffffffffffffffff1673ffffffffffffffffffffffffffffffffffffffff1663be0b2b926040518163ffffffff167c0100000000000000000000000000000000000000000000000000000000028152600401602060405180830381600087803b15801561103057600080fd5b505af1158015611044573d6000803e3d6000fd5b505050506040513d602081101561105a57600080fd5b8101908080519060200190929190505050109550851561120257600560009054906101000a900473ffffffffffffffffffffffffffffffffffffffff1673ffffffffffffffffffffffffffffffffffffffff16630e2c41298a8a8a6040518463ffffffff167c010000000000000000000000000000000000000000000000000000000002815260040180806020018373ffffffffffffffffffffffffffffffffffffffff1673ffffffffffffffffffffffffffffffffffffffff16815260200182810382528585828181526020019250808284378201915050945050505050600060405180830381600087803b15801561115357600080fd5b505af1158015611167573d6000803e3d6000fd5b505050508888600960008a73ffffffffffffffffffffffffffffffffffffffff1673ffffffffffffffffffffffffffffffffffffffff16815260200190815260200160002091906111b9929190615fdc565b508673ffffffffffffffffffffffffffffffffffffffff167f267e2866524585818c751ec77efc44db735e1205fba3a8856c1ea00dd8d4257d60405160405180910390a2611602565b611327600560009054906101000a900473ffffffffffffffffffffffffffffffffffffffff1673ffffffffffffffffffffffffffffffffffffffff1663be0b2b926040518163ffffffff167c0100000000000000000000000000000000000000000000000000000000028152600401602060405180830381600087803b15801561128b57600080fd5b505af115801561129f573d6000803e3d6000fd5b505050506040513d60208110156112b557600080fd5b81019080805190602001909291905050506113196064600660008c73ffffffffffffffffffffffffffffffffffffffff1673ffffffffffffffffffffffffffffffffffffffff1681526020019081526020016000205461587690919063ffffffff16565b6158ae90919063ffffffff16565b945060328510151561150b57600560009054906101000a900473ffffffffffffffffffffffffffffffffffffffff1673ffffffffffffffffffffffffffffffffffffffff16630e2c41298a8a8a6040518463ffffffff167c010000000000000000000000000000000000000000000000000000000002815260040180806020018373ffffffffffffffffffffffffffffffffffffffff1673ffffffffffffffffffffffffffffffffffffffff16815260200182810382528585828181526020019250808284378201915050945050505050600060405180830381600087803b15801561141257600080fd5b505af1158015611426573d6000803e3d6000fd5b505050508888600960008a73ffffffffffffffffffffffffffffffffffffffff1673ffffffffffffffffffffffffffffffffffffffff1681526020019081526020016000209190611478929190615fdc565b508673ffffffffffffffffffffffffffffffffffffffff167fda7747d97fef998d4a7785c57ac0ce073e1327394e424edb8b460d0d7129c351600660008a73ffffffffffffffffffffffffffffffffffffffff1673ffffffffffffffffffffffffffffffffffffffff168152602001908152602001600020546040518082815260200191505060405180910390a2611601565b6001600860008973ffffffffffffffffffffffffffffffffffffffff1673ffffffffffffffffffffffffffffffffffffffff16815260200190815260200160002060006101000a81548160ff0219169083151502179055508888600960008a73ffffffffffffffffffffffffffffffffffffffff1673ffffffffffffffffffffffffffffffffffffffff16815260200190815260200160002091906115b1929190615fdc565b508673ffffffffffffffffffffffffffffffffffffffff167fa0763ec8168b55bb4a0a16d776454f10dd95ccada43abfb20987d49f3477aadb866040518082815260200191505060405180910390a25b5b505050505050505050565b600460009054906101000a900473ffffffffffffffffffffffffffffffffffffffff1673ffffffffffffffffffffffffffffffffffffffff163373ffffffffffffffffffffffffffffffffffffffff161415156116d2576040517f08c379a000000000000000000000000000000000000000000000000000000000815260040180806020018281038252601c8152602001807f43616c6c6572206973206e6f7420636f6e7472616374206f776e65720000000081525060200191505060405180910390fd5b806000806101000a81548160ff02191690831515021790555050565b6000806000809054906101000a900460ff16151561179a576040517f08c379a00000000000000000000000000000000000000000000000000000000081526004018080602001828103825260258152602001807f436f6e74726163742069732063757272656e746c79206e6f74206f706572617481526020017f696f6e616c00000000000000000000000000000000000000000000000000000081525060400191505060405180910390fd5b600560009054906101000a900473ffffffffffffffffffffffffffffffffffffffff1673ffffffffffffffffffffffffffffffffffffffff1663bbb5716a846040518263ffffffff167c0100000000000000000000000000000000000000000000000000000000028152600401808273ffffffffffffffffffffffffffffffffffffffff1673ffffffffffffffffffffffffffffffffffffffff168152602001915050600060405180830381600087803b15801561185757600080fd5b505af115801561186b573d6000803e3d6000fd5b505050506040513d6000823e3d601f19601f82011682018060405250608081101561189557600080fd5b8101908080516401000000008111156118ad57600080fd5b828101905060208101848111156118c357600080fd5b81518560018202830111640100000000821117156118e057600080fd5b5050929190602001805190602001909291908051906020019092919080519060200190929190505050909192509050508091505080915050919050565b61192561605c565b6000809054906101000a900460ff1615156119ce576040517f08c379a00000000000000000000000000000000000000000000000000000000081526004018080602001828103825260258152602001807f436f6e74726163742069732063757272656e746c79206e6f74206f706572617481526020017f696f6e616c00000000000000000000000000000000000000000000000000000081525060400191505060405180910390fd5b670de0b6b3a76400003410151515611a4e576040517f08c379a000000000000000000000000000000000000000000000000000000000815260040180806020018281038252601c8152602001807f526567697374726174696f6e206665652069732072657175697265640000000081525060200191505060405180910390fd5b600b60003373ffffffffffffffffffffffffffffffffffffffff1673ffffffffffffffffffffffffffffffffffffffff16815260200190815260200160002060000160009054906101000a900460ff16151515611b13576040517f08c379a00000000000000000000000000000000000000000000000000000000081526004018080602001828103825260198152602001807f4f7261636c6520616c726561647920726567697374657265640000000000000081525060200191505060405180910390fd5b611b1c336158c4565b9050604080519081016040528060011515815260200182815250600b60003373ffffffffffffffffffffffffffffffffffffffff1673ffffffffffffffffffffffffffffffffffffffff16815260200190815260200160002060008201518160000160006101000a81548160ff021916908315150217905550602082015181600101906003611bac92919061607f565b5090505050565b6000806000809054906101000a900460ff161515611c5f576040517f08c379a00000000000000000000000000000000000000000000000000000000081526004018080602001828103825260258152602001807f436f6e74726163742069732063757272656e746c79206e6f74206f706572617481526020017f696f6e616c00000000000000000000000000000000000000000000000000000081525060400191505060405180910390fd5b6000600560009054906101000a900473ffffffffffffffffffffffffffffffffffffffff1673ffffffffffffffffffffffffffffffffffffffff166336773121336040518263ffffffff167c0100000000000000000000000000000000000000000000000000000000028152600401808273ffffffffffffffffffffffffffffffffffffffff1673ffffffffffffffffffffffffffffffffffffffff168152602001915050600060405180830381600087803b158015611d1e57600080fd5b505af1158015611d32573d6000803e3d6000fd5b505050506040513d6000823e3d601f19601f820116820180604052506060811015611d5c57600080fd5b810190808051640100000000811115611d7457600080fd5b82810190506020810184811115611d8a57600080fd5b8151856001820283011164010000000082111715611da757600080fd5b505092919060200180519060200190929190805190602001909291905050509091505080915050801515611e43576040517f08c379a00000000000000000000000000000000000000000000000000000000081526004018080602001828103825260188152602001807f50617373656e676572206e6f742072656769737465726564000000000000000081525060200191505060405180910390fd5b611eb28888888080601f01602080910402602001604051908101604052809392919081815260200183838082843782019150505050505087878080601f016020809104026020016040519081016040528093929190818152602001838380828437820191505050505050615a6a565b9250600560009054906101000a900473ffffffffffffffffffffffffffffffffffffffff1673ffffffffffffffffffffffffffffffffffffffff16633e7e115c846040518263ffffffff167c0100000000000000000000000000000000000000000000000000000000028152600401808260001916600019168152602001915050600060405180830381600087803b158015611f4d57600080fd5b505af1158015611f61573d6000803e3d6000fd5b505050506040513d6000823e3d601f19601f8201168201806040525060a0811015611f8b57600080fd5b810190808051640100000000811115611fa357600080fd5b82810190506020810184811115611fb957600080fd5b8151856001820283011164010000000082111715611fd657600080fd5b50509291906020018051906020019092919080519060200190929190805164010000000081111561200657600080fd5b8281019050602081018481111561201c57600080fd5b815185600182028301116401000000008211171561203957600080fd5b5050929190602001805164010000000081111561205557600080fd5b8281019050602081018481111561206b57600080fd5b815185600182028301116401000000008211171561208857600080fd5b5050929190505050909192935090915090505080925050811515612114576040517f08c379a000000000000000000000000000000000000000000000000000000000815260040180806020018281038252601a8152602001807f5468697320666c6967687420646f6573206e6f7420657869737400000000000081525060200191505060405180910390fd5b600560009054906101000a900473ffffffffffffffffffffffffffffffffffffffff1673ffffffffffffffffffffffffffffffffffffffff16634aa08e9833856040518363ffffffff167c0100000000000000000000000000000000000000000000000000000000028152600401808373ffffffffffffffffffffffffffffffffffffffff1673ffffffffffffffffffffffffffffffffffffffff168152602001826000191660001916815260200192505050602060405180830381600087803b1580156121e157600080fd5b505af11580156121f5573d6000803e3d6000fd5b505050506040513d602081101561220b57600080fd5b81019080805190602001909291905050501515156122b7576040517f08c379a000000000000000000000000000000000000000000000000000000000815260040180806020018281038252602d8152602001807f50617373656e67657220616c726561647920696e737572656420666f7220746881526020017f65207468697320666c696768740000000000000000000000000000000000000081525060400191505060405180910390fd5b670de0b6b3a7640000600254141515612338576040517f08c379a00000000000000000000000000000000000000000000000000000000081526004018080602001828103825260208152602001807f496e636f727265637420496e737572616e6365207072656d69756d207061696481525060200191505060405180910390fd5b600560009054906101000a900473ffffffffffffffffffffffffffffffffffffffff1673ffffffffffffffffffffffffffffffffffffffff166108fc349081150290604051600060405180830381858888f193505050501580156123a0573d6000803e3d6000fd5b50600560009054906101000a900473ffffffffffffffffffffffffffffffffffffffff1673ffffffffffffffffffffffffffffffffffffffff1663c7a5852c338a86346040518563ffffffff167c0100000000000000000000000000000000000000000000000000000000028152600401808573ffffffffffffffffffffffffffffffffffffffff1673ffffffffffffffffffffffffffffffffffffffff1681526020018473ffffffffffffffffffffffffffffffffffffffff1673ffffffffffffffffffffffffffffffffffffffff1681526020018360001916600019168152602001828152602001945050505050600060405180830381600087803b1580156124aa57600080fd5b505af11580156124be573d6000803e3d6000fd5b505050505050505050505050565b60076020528160005260406000206020528060005260406000206000915091509054906101000a900460ff1681565b60096020528060005260406000206000915090508054600181600116156101000203166002900480601f0160208091040260200160405190810160405280929190818152602001828054600181600116156101000203166002900480156125a35780601f10612578576101008083540402835291602001916125a3565b820191906000526020600020905b81548152906001019060200180831161258657829003601f168201915b505050505081565b60008760ff16600b60003373ffffffffffffffffffffffffffffffffffffffff1673ffffffffffffffffffffffffffffffffffffffff168152602001908152602001600020600101600060038110151561260157fe5b602091828204019190069054906101000a900460ff1660ff16148061269057508760ff16600b60003373ffffffffffffffffffffffffffffffffffffffff1673ffffffffffffffffffffffffffffffffffffffff168152602001908152602001600020600101600160038110151561267557fe5b602091828204019190069054906101000a900460ff1660ff16145b8061270557508760ff16600b60003373ffffffffffffffffffffffffffffffffffffffff1673ffffffffffffffffffffffffffffffffffffffff16815260200190815260200160002060010160026003811015156126ea57fe5b602091828204019190069054906101000a900460ff1660ff16145b151561279f576040517f08c379a00000000000000000000000000000000000000000000000000000000081526004018080602001828103825260238152602001807f496e64657820646f6573206e6f74206d61746368206f7261636c65207265717581526020017f657374000000000000000000000000000000000000000000000000000000000081525060400191505060405180910390fd5b878787878787604051602001808760ff1660ff167f01000000000000000000000000000000000000000000000000000000000000000281526001018673ffffffffffffffffffffffffffffffffffffffff1673ffffffffffffffffffffffffffffffffffffffff166c010000000000000000000000000281526014018585808284378201915050838380828437820191505096505050505050506040516020818303038152906040526040518082805190602001908083835b60208310151561287d5780518252602082019150602081019050602083039250612858565b6001836020036101000a03801982511681845116808217855250505050505090500191505060405180910390209050600c6000826000191660001916815260200190815260200160002060000160149054906101000a900460ff161515612972576040517f08c379a000000000000000000000000000000000000000000000000000000000815260040180806020018281038252602f8152602001807f466c69676874206f722074696d657374616d7020646f206e6f74206d6174636881526020017f206f7261636c652072657175657374000000000000000000000000000000000081525060400191505060405180910390fd5b600c6000826000191660001916815260200190815260200160002060010160008360ff1660ff1681526020019081526020016000203390806001815401808255809150509060018203906000526020600020016000909192909190916101000a81548173ffffffffffffffffffffffffffffffffffffffff021916908373ffffffffffffffffffffffffffffffffffffffff160217905550507fc777f2cb92b0e45c986306f775d0d87560abef827701ed0cd4d2952dccb8f20a878787878787604051808773ffffffffffffffffffffffffffffffffffffffff1673ffffffffffffffffffffffffffffffffffffffff16815260200180602001806020018460ff1660ff16815260200183810383528888828181526020019250808284378201915050838103825286868281815260200192508082843782019150509850505050505050505060405180910390a16003600c6000836000191660001916815260200190815260200160002060010160008460ff1660ff16815260200190815260200160002080549050101515612c2a577faf996b9eb2369d335f903e34460b2aee15a4a94fe332927d868ed4a922589de1878787878787604051808773ffffffffffffffffffffffffffffffffffffffff1673ffffffffffffffffffffffffffffffffffffffff16815260200180602001806020018460ff1660ff16815260200183810383528888828181526020019250808284378201915050838103825286868281815260200192508082843782019150509850505050505050505060405180910390a1612c298787878080601f01602080910402602001604051908101604052809392919081815260200183838082843782019150505050505086868080601f016020809104026020016040519081016040528093929190818152602001838380828437820191505050505050856032615c85565b5b5050505050505050565b612c3c61605c565b600b60003373ffffffffffffffffffffffffffffffffffffffff1673ffffffffffffffffffffffffffffffffffffffff16815260200190815260200160002060000160009054906101000a900460ff161515612d00576040517f08c379a000000000000000000000000000000000000000000000000000000000815260040180806020018281038252601b8152602001807f4e6f74207265676973746572656420617320616e206f7261636c65000000000081525060200191505060405180910390fd5b600b60003373ffffffffffffffffffffffffffffffffffffffff1673ffffffffffffffffffffffffffffffffffffffff168152602001908152602001600020600101600380602002604051908101604052809291908260038015612d9f576020028201916000905b82829054906101000a900460ff1660ff1681526020019060010190602082600001049283019260010382029150808411612d685790505b5050505050905090565b60008060009054906101000a900460ff161515612e54576040517f08c379a00000000000000000000000000000000000000000000000000000000081526004018080602001828103825260258152602001807f436f6e74726163742069732063757272656e746c79206e6f74206f706572617481526020017f696f6e616c00000000000000000000000000000000000000000000000000000081525060400191505060405180910390fd5b600760008473ffffffffffffffffffffffffffffffffffffffff1673ffffffffffffffffffffffffffffffffffffffff16815260200190815260200160002060008373ffffffffffffffffffffffffffffffffffffffff1673ffffffffffffffffffffffffffffffffffffffff16815260200190815260200160002060009054906101000a900460ff16905092915050565b670de0b6b3a764000081565b6000806000809054906101000a900460ff161515612f9e576040517f08c379a00000000000000000000000000000000000000000000000000000000081526004018080602001828103825260258152602001807f436f6e74726163742069732063757272656e746c79206e6f74206f706572617481526020017f696f6e616c00000000000000000000000000000000000000000000000000000081525060400191505060405180910390fd5b61300d8888888080601f01602080910402602001604051908101604052809392919081815260200183838082843782019150505050505087878080601f016020809104026020016040519081016040528093929190818152602001838380828437820191505050505050615a6a565b9150600560009054906101000a900473ffffffffffffffffffffffffffffffffffffffff1673ffffffffffffffffffffffffffffffffffffffff16633e7e115c836040518263ffffffff167c0100000000000000000000000000000000000000000000000000000000028152600401808260001916600019168152602001915050600060405180830381600087803b1580156130a857600080fd5b505af11580156130bc573d6000803e3d6000fd5b505050506040513d6000823e3d601f19601f8201168201806040525060a08110156130e657600080fd5b8101908080516401000000008111156130fe57600080fd5b8281019050602081018481111561311457600080fd5b815185600182028301116401000000008211171561313157600080fd5b50509291906020018051906020019092919080519060200190929190805164010000000081111561316157600080fd5b8281019050602081018481111561317757600080fd5b815185600182028301116401000000008211171561319457600080fd5b505092919060200180516401000000008111156131b057600080fd5b828101905060208101848111156131c657600080fd5b81518560018202830111640100000000821117156131e357600080fd5b505092919050505090919293509091509050508091505080151561326f576040517f08c379a000000000000000000000000000000000000000000000000000000000815260040180806020018281038252601a8152602001807f5468697320666c6967687420646f6573206e6f7420657869737400000000000081525060200191505060405180910390fd5b600560009054906101000a900473ffffffffffffffffffffffffffffffffffffffff1673ffffffffffffffffffffffffffffffffffffffff1663bf4a7b8783856040518363ffffffff167c01000000000000000000000000000000000000000000000000000000000281526004018083600019166000191681526020018260ff1660ff16815260200192505050600060405180830381600087803b15801561331657600080fd5b505af115801561332a573d6000803e3d6000fd5b505050505050505050505050565b6000806000809054906101000a900460ff1615156133e4576040517f08c379a00000000000000000000000000000000000000000000000000000000081526004018080602001828103825260258152602001807f436f6e74726163742069732063757272656e746c79206e6f74206f706572617481526020017f696f6e616c00000000000000000000000000000000000000000000000000000081525060400191505060405180910390fd5b600460009054906101000a900473ffffffffffffffffffffffffffffffffffffffff1673ffffffffffffffffffffffffffffffffffffffff163373ffffffffffffffffffffffffffffffffffffffff161415156134a9576040517f08c379a000000000000000000000000000000000000000000000000000000000815260040180806020018281038252601c8152602001807f43616c6c6572206973206e6f7420636f6e7472616374206f776e65720000000081525060200191505060405180910390fd5b6134b233615e5e565b9150818787878787604051602001808760ff1660ff167f01000000000000000000000000000000000000000000000000000000000000000281526001018673ffffffffffffffffffffffffffffffffffffffff1673ffffffffffffffffffffffffffffffffffffffff166c010000000000000000000000000281526014018585808284378201915050838380828437820191505096505050505050506040516020818303038152906040526040518082805190602001908083835b602083101515613592578051825260208201915060208101905060208303925061356d565b6001836020036101000a0380198251168184511680821785525050505050509050019150506040518091039020905060408051908101604052803373ffffffffffffffffffffffffffffffffffffffff16815260200160011515815250600c6000836000191660001916815260200190815260200160002060008201518160000160006101000a81548173ffffffffffffffffffffffffffffffffffffffff021916908373ffffffffffffffffffffffffffffffffffffffff16021790555060208201518160000160146101000a81548160ff0219169083151502179055509050507fe3ba3f83b9e72cb780bde451f7145ea5e46b32438f11cb92484142e8afd72c27828888888888604051808760ff1660ff1681526020018673ffffffffffffffffffffffffffffffffffffffff1673ffffffffffffffffffffffffffffffffffffffff168152602001806020018060200183810383528787828181526020019250808284378201915050838103825285858281815260200192508082843782019150509850505050505050505060405180910390a150505050505050565b6000809054906101000a900460ff1615156137db576040517f08c379a00000000000000000000000000000000000000000000000000000000081526004018080602001828103825260258152602001807f436f6e74726163742069732063757272656e746c79206e6f74206f706572617481526020017f696f6e616c00000000000000000000000000000000000000000000000000000081525060400191505060405180910390fd5b6000600560009054906101000a900473ffffffffffffffffffffffffffffffffffffffff1673ffffffffffffffffffffffffffffffffffffffff1663bbb5716a336040518263ffffffff167c0100000000000000000000000000000000000000000000000000000000028152600401808273ffffffffffffffffffffffffffffffffffffffff1673ffffffffffffffffffffffffffffffffffffffff168152602001915050600060405180830381600087803b15801561389a57600080fd5b505af11580156138ae573d6000803e3d6000fd5b505050506040513d6000823e3d601f19601f8201168201806040525060808110156138d857600080fd5b8101908080516401000000008111156138f057600080fd5b8281019050602081018481111561390657600080fd5b815185600182028301116401000000008211171561392357600080fd5b505092919060200180519060200190929190805190602001909291908051906020019092919050505090919250905050809150508015156139cc576040517f08c379a00000000000000000000000000000000000000000000000000000000081526004018080602001828103825260168152602001807f4169726c696e65206e6f7420726567697374657265640000000000000000000081525060200191505060405180910390fd5b600560009054906101000a900473ffffffffffffffffffffffffffffffffffffffff1673ffffffffffffffffffffffffffffffffffffffff1663325304be3360016040518363ffffffff167c0100000000000000000000000000000000000000000000000000000000028152600401808373ffffffffffffffffffffffffffffffffffffffff1673ffffffffffffffffffffffffffffffffffffffff1681526020018215151515815260200192505050600060405180830381600087803b158015613a9657600080fd5b505af1158015613aaa573d6000803e3d6000fd5b505050503373ffffffffffffffffffffffffffffffffffffffff167fbeb58d855b33b4f0fc62c00d596282743e234190a4d3957f0db8f9a02a84eac9346040518082815260200191505060405180910390a250565b6000806000809054906101000a900460ff161515613bab576040517f08c379a00000000000000000000000000000000000000000000000000000000081526004018080602001828103825260258152602001807f436f6e74726163742069732063757272656e746c79206e6f74206f706572617481526020017f696f6e616c00000000000000000000000000000000000000000000000000000081525060400191505060405180910390fd5b6000600560009054906101000a900473ffffffffffffffffffffffffffffffffffffffff1673ffffffffffffffffffffffffffffffffffffffff1663bbb5716a336040518263ffffffff167c0100000000000000000000000000000000000000000000000000000000028152600401808273ffffffffffffffffffffffffffffffffffffffff1673ffffffffffffffffffffffffffffffffffffffff168152602001915050600060405180830381600087803b158015613c6a57600080fd5b505af1158015613c7e573d6000803e3d6000fd5b505050506040513d6000823e3d601f19601f820116820180604052506080811015613ca857600080fd5b810190808051640100000000811115613cc057600080fd5b82810190506020810184811115613cd657600080fd5b8151856001820283011164010000000082111715613cf357600080fd5b50509291906020018051906020019092919080519060200190929190805190602001909291905050509091925090505080915050801515613d9c576040517f08c379a00000000000000000000000000000000000000000000000000000000081526004018080602001828103825260168152602001807f4169726c696e65206e6f7420726567697374657265640000000000000000000081525060200191505060405180910390fd5b613e0b8888888080601f01602080910402602001604051908101604052809392919081815260200183838082843782019150505050505087878080601f016020809104026020016040519081016040528093929190818152602001838380828437820191505050505050615a6a565b9150600560009054906101000a900473ffffffffffffffffffffffffffffffffffffffff1673ffffffffffffffffffffffffffffffffffffffff16634582f2768a846040518363ffffffff167c0100000000000000000000000000000000000000000000000000000000028152600401808373ffffffffffffffffffffffffffffffffffffffff1673ffffffffffffffffffffffffffffffffffffffff168152602001826000191660001916815260200192505050602060405180830381600087803b158015613eda57600080fd5b505af1158015613eee573d6000803e3d6000fd5b505050506040513d6020811015613f0457600080fd5b8101908080519060200190929190505050925050509695505050505050565b60086020528060005260406000206000915054906101000a900460ff1681565b60008060009054906101000a900460ff161515613fee576040517f08c379a00000000000000000000000000000000000000000000000000000000081526004018080602001828103825260258152602001807f436f6e74726163742069732063757272656e746c79206e6f74206f706572617481526020017f696f6e616c00000000000000000000000000000000000000000000000000000081525060400191505060405180910390fd5b6000600560009054906101000a900473ffffffffffffffffffffffffffffffffffffffff1673ffffffffffffffffffffffffffffffffffffffff1663bbb5716a336040518263ffffffff167c0100000000000000000000000000000000000000000000000000000000028152600401808273ffffffffffffffffffffffffffffffffffffffff1673ffffffffffffffffffffffffffffffffffffffff168152602001915050600060405180830381600087803b1580156140ad57600080fd5b505af11580156140c1573d6000803e3d6000fd5b505050506040513d6000823e3d601f19601f8201168201806040525060808110156140eb57600080fd5b81019080805164010000000081111561410357600080fd5b8281019050602081018481111561411957600080fd5b815185600182028301116401000000008211171561413657600080fd5b505092919060200180519060200190929190805190602001909291908051906020019092919050505090919250905050809150508015156141df576040517f08c379a00000000000000000000000000000000000000000000000000000000081526004018080602001828103825260168152602001807f4169726c696e65206e6f7420726567697374657265640000000000000000000081525060200191505060405180910390fd5b82600760003373ffffffffffffffffffffffffffffffffffffffff1673ffffffffffffffffffffffffffffffffffffffff16815260200190815260200160002060008273ffffffffffffffffffffffffffffffffffffffff1673ffffffffffffffffffffffffffffffffffffffff16815260200190815260200160002060009054906101000a900460ff16151515614305576040517f08c379a00000000000000000000000000000000000000000000000000000000081526004018080602001828103825260268152602001807f596f75206861766520616c726561647920766f746564206f6e2074686973206181526020017f69726c696e65000000000000000000000000000000000000000000000000000081525060400191505060405180910390fd5b83600860008273ffffffffffffffffffffffffffffffffffffffff1673ffffffffffffffffffffffffffffffffffffffff16815260200190815260200160002060009054906101000a900460ff1615156143ed576040517f08c379a00000000000000000000000000000000000000000000000000000000081526004018080602001828103825260298152602001807f54686973206169726c696e65206973206e6f7420696e2072656769737472617481526020017f696f6e207175657565000000000000000000000000000000000000000000000081525060400191505060405180910390fd5b600560009054906101000a900473ffffffffffffffffffffffffffffffffffffffff1673ffffffffffffffffffffffffffffffffffffffff1663bbb5716a336040518263ffffffff167c0100000000000000000000000000000000000000000000000000000000028152600401808273ffffffffffffffffffffffffffffffffffffffff1673ffffffffffffffffffffffffffffffffffffffff168152602001915050600060405180830381600087803b1580156144aa57600080fd5b505af11580156144be573d6000803e3d6000fd5b505050506040513d6000823e3d601f19601f8201168201806040525060808110156144e857600080fd5b81019080805164010000000081111561450057600080fd5b8281019050602081018481111561451657600080fd5b815185600182028301116401000000008211171561453357600080fd5b50509291906020018051906020019092919080519060200190929190805190602001909291905050509091925090915050809450508315156145dd576040517f08c379a00000000000000000000000000000000000000000000000000000000081526004018080602001828103825260208152602001807f4169726c696e6520686173206e6f74207061727469636970617465642079657481525060200191505060405180910390fd5b6001600760003373ffffffffffffffffffffffffffffffffffffffff1673ffffffffffffffffffffffffffffffffffffffff16815260200190815260200160002060008773ffffffffffffffffffffffffffffffffffffffff1673ffffffffffffffffffffffffffffffffffffffff16815260200190815260200160002060006101000a81548160ff0219169083151502179055506146c56001600660008873ffffffffffffffffffffffffffffffffffffffff1673ffffffffffffffffffffffffffffffffffffffff16815260200190815260200160002054615fc090919063ffffffff16565b600660008773ffffffffffffffffffffffffffffffffffffffff1673ffffffffffffffffffffffffffffffffffffffff168152602001908152602001600020819055508473ffffffffffffffffffffffffffffffffffffffff163373ffffffffffffffffffffffffffffffffffffffff167fccc5f756e8e7a9ea840a728df1ff9a866a0fbcd88ff1e8f8f7127acb3267af7860405160405180910390a35050505050565b6000806000809054906101000a900460ff161515614815576040517f08c379a00000000000000000000000000000000000000000000000000000000081526004018080602001828103825260258152602001807f436f6e74726163742069732063757272656e746c79206e6f74206f706572617481526020017f696f6e616c00000000000000000000000000000000000000000000000000000081525060400191505060405180910390fd5b33600080600560009054906101000a900473ffffffffffffffffffffffffffffffffffffffff1673ffffffffffffffffffffffffffffffffffffffff1663bbb5716a846040518263ffffffff167c0100000000000000000000000000000000000000000000000000000000028152600401808273ffffffffffffffffffffffffffffffffffffffff1673ffffffffffffffffffffffffffffffffffffffff168152602001915050600060405180830381600087803b1580156148d657600080fd5b505af11580156148ea573d6000803e3d6000fd5b505050506040513d6000823e3d601f19601f82011682018060405250608081101561491457600080fd5b81019080805164010000000081111561492c57600080fd5b8281019050602081018481111561494257600080fd5b815185600182028301116401000000008211171561495f57600080fd5b50509291906020018051906020019092919080519060200190929190805190602001909291905050509091925090505080925050600560009054906101000a900473ffffffffffffffffffffffffffffffffffffffff1673ffffffffffffffffffffffffffffffffffffffff166336773121846040518263ffffffff167c0100000000000000000000000000000000000000000000000000000000028152600401808273ffffffffffffffffffffffffffffffffffffffff1673ffffffffffffffffffffffffffffffffffffffff168152602001915050600060405180830381600087803b158015614a5057600080fd5b505af1158015614a64573d6000803e3d6000fd5b505050506040513d6000823e3d601f19601f820116820180604052506060811015614a8e57600080fd5b810190808051640100000000811115614aa657600080fd5b82810190506020810184811115614abc57600080fd5b8151856001820283011164010000000082111715614ad957600080fd5b50509291906020018051906020019092919080519060200190929190505050909150508091505081151515614b9c576040517f08c379a00000000000000000000000000000000000000000000000000000000081526004018080602001828103825260308152602001807f54686973206164647265737320697320616c72656164792074616b656e20627981526020017f20616e6f74686572206169726c696e650000000000000000000000000000000081525060400191505060405180910390fd5b80151515614c38576040517f08c379a00000000000000000000000000000000000000000000000000000000081526004018080602001828103825260328152602001807f54686973206164647265737320697320616c72656164792074616b656e20627981526020017f20616e6f746865722070617373656e676572000000000000000000000000000081525060400191505060405180910390fd5b614ca78a8a8a8080601f01602080910402602001604051908101604052809392919081815260200183838082843782019150505050505089898080601f016020809104026020016040519081016040528093929190818152602001838380828437820191505050505050615a6a565b9450600560009054906101000a900473ffffffffffffffffffffffffffffffffffffffff1673ffffffffffffffffffffffffffffffffffffffff16633e7e115c866040518263ffffffff167c0100000000000000000000000000000000000000000000000000000000028152600401808260001916600019168152602001915050600060405180830381600087803b158015614d4257600080fd5b505af1158015614d56573d6000803e3d6000fd5b505050506040513d6000823e3d601f19601f8201168201806040525060a0811015614d8057600080fd5b810190808051640100000000811115614d9857600080fd5b82810190506020810184811115614dae57600080fd5b8151856001820283011164010000000082111715614dcb57600080fd5b505092919060200180519060200190929190805190602001909291908051640100000000811115614dfb57600080fd5b82810190506020810184811115614e1157600080fd5b8151856001820283011164010000000082111715614e2e57600080fd5b50509291906020018051640100000000811115614e4a57600080fd5b82810190506020810184811115614e6057600080fd5b8151856001820283011164010000000082111715614e7d57600080fd5b5050929190505050909192935090915090505080945050831515614f09576040517f08c379a000000000000000000000000000000000000000000000000000000000815260040180806020018281038252601a8152602001807f5468697320666c6967687420646f6573206e6f7420657869737400000000000081525060200191505060405180910390fd5b600560009054906101000a900473ffffffffffffffffffffffffffffffffffffffff1673ffffffffffffffffffffffffffffffffffffffff1663180662968b8e8e338a346040518763ffffffff167c0100000000000000000000000000000000000000000000000000000000028152600401808773ffffffffffffffffffffffffffffffffffffffff1673ffffffffffffffffffffffffffffffffffffffff168152602001806020018573ffffffffffffffffffffffffffffffffffffffff1673ffffffffffffffffffffffffffffffffffffffff168152602001846000191660001916815260200183815260200182810382528787828181526020019250808284378201915050975050505050505050600060405180830381600087803b15801561503457600080fd5b505af1158015615048573d6000803e3d6000fd5b50505050600560009054906101000a900473ffffffffffffffffffffffffffffffffffffffff1673ffffffffffffffffffffffffffffffffffffffff166108fc349081150290604051600060405180830381858888f193505050501580156150b4573d6000803e3d6000fd5b503373ffffffffffffffffffffffffffffffffffffffff167fa82494f4404e323b94eda042c962700ff93b91a1d9deccd5acfca524562befa58d8d8d8960405180806020018473ffffffffffffffffffffffffffffffffffffffff1673ffffffffffffffffffffffffffffffffffffffff1681526020018360001916600019168152602001828103825286868281815260200192508082843782019150509550505050505060405180910390a2505050505050505050505050565b6000806000809054906101000a900460ff16151561521b576040517f08c379a00000000000000000000000000000000000000000000000000000000081526004018080602001828103825260258152602001807f436f6e74726163742069732063757272656e746c79206e6f74206f706572617481526020017f696f6e616c00000000000000000000000000000000000000000000000000000081525060400191505060405180910390fd5b6000600560009054906101000a900473ffffffffffffffffffffffffffffffffffffffff1673ffffffffffffffffffffffffffffffffffffffff1663bbb5716a336040518263ffffffff167c0100000000000000000000000000000000000000000000000000000000028152600401808273ffffffffffffffffffffffffffffffffffffffff1673ffffffffffffffffffffffffffffffffffffffff168152602001915050600060405180830381600087803b1580156152da57600080fd5b505af11580156152ee573d6000803e3d6000fd5b505050506040513d6000823e3d601f19601f82011682018060405250608081101561531857600080fd5b81019080805164010000000081111561533057600080fd5b8281019050602081018481111561534657600080fd5b815185600182028301116401000000008211171561536357600080fd5b5050929190602001805190602001909291908051906020019092919080519060200190929190505050909192509050508091505080151561540c576040517f08c379a00000000000000000000000000000000000000000000000000000000081526004018080602001828103825260168152602001807f4169726c696e65206e6f7420726567697374657265640000000000000000000081525060200191505060405180910390fd5b600560009054906101000a900473ffffffffffffffffffffffffffffffffffffffff1673ffffffffffffffffffffffffffffffffffffffff1663bbb5716a336040518263ffffffff167c0100000000000000000000000000000000000000000000000000000000028152600401808273ffffffffffffffffffffffffffffffffffffffff1673ffffffffffffffffffffffffffffffffffffffff168152602001915050600060405180830381600087803b1580156154c957600080fd5b505af11580156154dd573d6000803e3d6000fd5b505050506040513d6000823e3d601f19601f82011682018060405250608081101561550757600080fd5b81019080805164010000000081111561551f57600080fd5b8281019050602081018481111561553557600080fd5b815185600182028301116401000000008211171561555257600080fd5b5050929190602001805190602001909291908051906020019092919080519060200190929190505050909192509091505080935050821515615622576040517f08c379a00000000000000000000000000000000000000000000000000000000081526004018080602001828103825260318152602001807f4169726c696e65206973206e6f742066756c6c792066756e64656420616e642081526020017f63616e277420706172746963697061746500000000000000000000000000000081525060400191505060405180910390fd5b6156913388888080601f01602080910402602001604051908101604052809392919081815260200183838082843782019150505050505087878080601f016020809104026020016040519081016040528093929190818152602001838380828437820191505050505050615a6a565b9150600560009054906101000a900473ffffffffffffffffffffffffffffffffffffffff1673ffffffffffffffffffffffffffffffffffffffff1663643aff0c33848a8a8a8a600a6040518863ffffffff167c0100000000000000000000000000000000000000000000000000000000028152600401808873ffffffffffffffffffffffffffffffffffffffff1673ffffffffffffffffffffffffffffffffffffffff168152602001876000191660001916815260200180602001806020018460ff1660ff16815260200183810383528888828181526020019250808284378201915050838103825286868281815260200192508082843782019150509950505050505050505050600060405180830381600087803b1580156157b357600080fd5b505af11580156157c7573d6000803e3d6000fd5b505050503373ffffffffffffffffffffffffffffffffffffffff167f212393b83763f79d56fd573d18418094bef280a52e8bfa4719d2dcfd456ef239888888886040518080602001806020018381038352878782818152602001925080828437820191505083810382528585828181526020019250808284378201915050965050505050505060405180910390a250505050505050565b60066020528060005260406000206000915090505481565b60008083141561588957600090506158a8565b818302905081838281151561589a57fe5b041415156158a457fe5b8090505b92915050565b600081838115156158bb57fe5b04905092915050565b6158cc61605c565b6158d461605c565b6158dd83615e5e565b8160006003811015156158ec57fe5b602002019060ff16908160ff168152505080600060038110151561590c57fe5b602002015181600160038110151561592057fe5b602002019060ff16908160ff16815250505b80600060038110151561594157fe5b602002015160ff1681600160038110151561595857fe5b602002015160ff1614156159945761596f83615e5e565b81600160038110151561597e57fe5b602002019060ff16908160ff1681525050615932565b8060016003811015156159a357fe5b60200201518160026003811015156159b757fe5b602002019060ff16908160ff16815250505b8060006003811015156159d857fe5b602002015160ff168160026003811015156159ef57fe5b602002015160ff161480615a2e5750806001600381101515615a0d57fe5b602002015160ff16816002600381101515615a2457fe5b602002015160ff16145b15615a6157615a3c83615e5e565b816002600381101515615a4b57fe5b602002019060ff16908160ff16815250506159c9565b80915050919050565b60008060009054906101000a900460ff161515615b15576040517f08c379a00000000000000000000000000000000000000000000000000000000081526004018080602001828103825260258152602001807f436f6e74726163742069732063757272656e746c79206e6f74206f706572617481526020017f696f6e616c00000000000000000000000000000000000000000000000000000081525060400191505060405180910390fd5b838383604051602001808473ffffffffffffffffffffffffffffffffffffffff1673ffffffffffffffffffffffffffffffffffffffff166c0100000000000000000000000002815260140183805190602001908083835b602083101515615b915780518252602082019150602081019050602083039250615b6c565b6001836020036101000a03801982511681845116808217855250505050505090500182805190602001908083835b602083101515615be45780518252602082019150602081019050602083039250615bbf565b6001836020036101000a03801982511681845116808217855250505050505090500193505050506040516020818303038152906040526040518082805190602001908083835b602083101515615c4f5780518252602082019150602081019050602083039250615c2a565b6001836020036101000a038019825116818451168082178552505050505050905001915050604051809103902090509392505050565b6000615c92868686615a6a565b9050600560009054906101000a900473ffffffffffffffffffffffffffffffffffffffff1673ffffffffffffffffffffffffffffffffffffffff1663bf4a7b8782856040518363ffffffff167c01000000000000000000000000000000000000000000000000000000000281526004018083600019166000191681526020018260ff1660ff16815260200192505050600060405180830381600087803b158015615d3b57600080fd5b505af1158015615d4f573d6000803e3d6000fd5b50505050601460ff168360ff161415615e5657600560009054906101000a900473ffffffffffffffffffffffffffffffffffffffff1673ffffffffffffffffffffffffffffffffffffffff1663aeec551082846040518363ffffffff167c01000000000000000000000000000000000000000000000000000000000281526004018083600019166000191681526020018260ff16815260200192505050600060405180830381600087803b158015615e0657600080fd5b505af1158015615e1a573d6000803e3d6000fd5b505050506000600c6000836000191660001916815260200190815260200160002060000160146101000a81548160ff0219169083151502179055505b505050505050565b6000806000600a91508160ff16600a600081819054906101000a900460ff168092919060010191906101000a81548160ff021916908360ff16021790555060ff16430340856040516020018083600019166000191681526020018273ffffffffffffffffffffffffffffffffffffffff1673ffffffffffffffffffffffffffffffffffffffff166c01000000000000000000000000028152601401925050506040516020818303038152906040526040518082805190602001908083835b602083101515615f415780518252602082019150602081019050602083039250615f1c565b6001836020036101000a038019825116818451168082178552505050505050905001915050604051809103902060019004811515615f7b57fe5b06905060fa600a60009054906101000a900460ff1660ff161115615fb6576000600a60006101000a81548160ff021916908360ff1602179055505b8092505050919050565b60008183019050828110151515615fd357fe5b80905092915050565b828054600181600116156101000203166002900490600052602060002090601f016020900481019282601f1061601d57803560ff191683800117855561604b565b8280016001018555821561604b579182015b8281111561604a57823582559160200191906001019061602f565b5b5090506160589190616119565b5090565b606060405190810160405280600390602082028038833980820191505090505090565b826003601f016020900481019282156161085791602002820160005b838211156160d957835183826101000a81548160ff021916908360ff160217905550926020019260010160208160000104928301926001030261609b565b80156161065782816101000a81549060ff02191690556001016020816000010492830192600103026160d9565b505b509050616115919061613e565b5090565b61613b91905b8082111561613757600081600090555060010161611f565b5090565b90565b61616b91905b8082111561616757600081816101000a81549060ff021916905550600101616144565b5090565b905600a165627a7a7230582047f1681957e43a72546dde75f06491ad81dbafcdfafa9ea058f1d9d94d59586d0029",
  "source": "pragma solidity ^0.4.25;\n\n// It's important to avoid vulnerabilities due to numeric overflow bugs\n// OpenZeppelin's SafeMath library, when used correctly, protects agains such bugs\n// More info: https://www.nccgroup.trust/us/about-us/newsroom-and-events/blog/2018/november/smart-contract-insecurity-bad-arithmetic/\n\nimport \"../node_modules/openzeppelin-solidity/contracts/math/SafeMath.sol\";\nimport \"./FlightSuretyData.sol\";\n\n/************************************************** */\n/* FlightSurety Smart Contract                      */\n/************************************************** */\ncontract FlightSuretyApp {\n    using SafeMath for uint256; // Allow SafeMath functions to be called for all uint256 types (similar to \"prototype\" in Javascript)\n\n    /********************************************************************************************/\n    /*                                       DATA VARIABLES                                     */\n    /********************************************************************************************/\n    bool private operational = true;                                    // Blocks all state changes throughout the contract if false\n\n    // Flight status codees\n    uint8 private constant STATUS_CODE_UNKNOWN = 0;\n    uint8 private constant STATUS_CODE_ON_TIME = 10;\n    uint8 private constant STATUS_CODE_LATE_AIRLINE = 20;\n    uint8 private constant STATUS_CODE_LATE_WEATHER = 30;\n    uint8 private constant STATUS_CODE_LATE_TECHNICAL = 40;\n    uint8 private constant STATUS_CODE_LATE_OTHER = 50;\n\n    uint256 private AIRLINE_PARTICIPATION_FEE =  10 ether;\n    uint256 private INSURANCE_PREMIUM =  1 ether;   //\n    uint256 private CONSENSUS = 4;                      //max number of airlines without consensus rule\n\n\n    address private contractOwner;          // Account used to deploy contract\n\n    FlightSuretyData flightData; //data contract\n\n    mapping(address => uint256) public votesPerAirline;\n    mapping(address => mapping(address => bool)) public hasVoted;\n    mapping(address => bool) public isInQueue;\n    mapping(address => string) public airlineNames;\n\n    /********************************************************************************************/\n    /*                                       Events                                             */\n    /********************************************************************************************/\n\n    event AirlineAddedToRegisterationQueue(address indexed airline, uint256 votesRatio);\n    event AirlineRegisteredWithoutVotes(address indexed airline);\n    event AirlineRegisteredWithVotes(address indexed airline, uint256 votes);\n    event AirlineVoted(address indexed airlineVoting, address indexed airlineVoted);\n    event AirlineFullyFunded(address indexed airline, uint256 value);\n    event FlightRegistered(address indexed airline, string flightNumber, string timeStamp);\n    event PassengerRegistered(address indexed passenger, string name, address airlineAddress, bytes32 key);\n    event InsurancePurchased(address indexed passenger, bytes32 flightNumber, uint256 amount);\n \n    /********************************************************************************************/\n    /*                                       FUNCTION MODIFIERS                                 */\n    /********************************************************************************************/\n\n    // Modifiers help avoid duplication of code. They are typically used to validate something\n    // before a function is allowed to be executed.\n\n    /**\n    * @dev Modifier that requires the \"operational\" boolean variable to be \"true\"\n    *      This is used on all state changing functions to pause the contract in \n    *      the event there is an issue that needs to be fixed\n    */\n    modifier isOperational() \n    {\n         // Modify to call data contract's status\n        require(operational, \"Contract is currently not operational\");  \n        _;  // All modifiers require an \"_\" which indicates where the function body will be added\n    }\n\n    /**\n    * @dev Modifier that requires the \"ContractOwner\" account to be the function caller\n    */\n    modifier onlyContractOwner()\n    {\n        require(msg.sender == contractOwner, \"Caller is not contract owner\");\n        _;\n    }\n\n    modifier onlyRegisteredAirline(){\n        bool isRegistered;\n        (,isRegistered,,)= flightData.getAirlineData(msg.sender);\n        require(isRegistered, \"Airline not registered\");\n        _;\n    }\n\n\n    modifier addressNotUsed(address _address){\n        bool isAirlineRegistered;\n        bool isPassengerRegistered;\n        (,isAirlineRegistered,,)= flightData.getAirlineData(_address);\n        (,isPassengerRegistered,) = flightData.getPassengerData(_address);\n        require(!isAirlineRegistered, \"This address is already taken by another airline\");\n        require(!isPassengerRegistered, \"This address is already taken by another passenger\");\n        _;\n    }\n\n    modifier hasNotAlreadyVoted(address _airlineAddress) \n    {\n         // Modify to call data contract's status\n        require(!hasVoted[msg.sender][_airlineAddress], \"You have already voted on this airline\");  \n        _;  // All modifiers require an \"_\" which indicates where the function body will be added\n    }\n\n    modifier onlyInQueue(address _airlineAddress) \n    {\n         // Modify to call data contract's status\n        require(isInQueue[_airlineAddress], \"This airline is not in registration queue\");  \n        _;  // All modifiers require an \"_\" which indicates where the function body will be added\n    }\n\n\n    modifier onlyRegisteredPassenger(){\n        bool isRegistered;\n        (,isRegistered,) = flightData.getPassengerData(msg.sender);\n        require(isRegistered, \"Passenger not registered\");\n        _;\n    }\n\n    /********************************************************************************************/\n    /*                                       CONSTRUCTOR                                        */\n    /********************************************************************************************/\n\n    /**\n    * @dev Contract constructor\n    *\n    */\n    constructor(address _flightDataContractAddress) \n    public \n    {\n        contractOwner = msg.sender;\n        flightData = FlightSuretyData(_flightDataContractAddress);\n    }\n\n    /********************************************************************************************/\n    /*                                       UTILITY FUNCTIONS                                  */\n    /********************************************************************************************/\n\n        /**\n    * @dev Get operating status of contract\n    *\n    * @return A bool that is the current operating status\n    */      \n    function getOperationalStatus() \n    external \n    view \n    returns(bool) \n    {\n        return operational;\n    }\n\n\n    /**\n    * @dev Sets contract operations on/off\n    *\n    * When operational mode is disabled, all write transactions except for this one will fail\n    */    \n    function setOperatingStatus(bool mode) \n    external\n    onlyContractOwner \n    {\n        operational = mode;\n    }\n\n    /* @dev generate key using keccak256\n    */\n    function generateKey(address airlineAddress, string flightNumber, string timeStamp)\n    internal\n    view\n    isOperational\n    returns(bytes32) \n    {\n        return keccak256(abi.encodePacked(airlineAddress, flightNumber, timeStamp));\n    }\n\n\n    /********************************************************************************************/\n    /*                                     SMART CONTRACT FUNCTIONS                             */\n    /********************************************************************************************/\n\n  \n   /**\n    * @dev Add an airline to the registration queue\n    *\n    */   \n    function registerAirline(string name, address airlineAddress)\n    external\n    isOperational\n    onlyRegisteredAirline\n    addressNotUsed(airlineAddress)\n    {\n        bool check = flightData.numRegisteredAirlines() < CONSENSUS;\n        if (check) {\n            flightData.registerAirline(name, airlineAddress);\n            airlineNames[airlineAddress] = name;\n            emit AirlineRegisteredWithoutVotes(airlineAddress);\n        } else {\n            uint256 votesPercentage;\n            votesPercentage = votesPerAirline[airlineAddress].mul(100).div(flightData.numRegisteredAirlines());\n            if (votesPercentage >= 50) {\n                flightData.registerAirline(name, airlineAddress);\n                airlineNames[airlineAddress] = name;\n                emit AirlineRegisteredWithVotes(airlineAddress, votesPerAirline[airlineAddress]);\n            } else {\n                isInQueue[airlineAddress] = true;\n                airlineNames[airlineAddress] = name;\n                emit AirlineAddedToRegisterationQueue(airlineAddress, votesPercentage);\n            }\n        }\n    }\n\n\n    function voteAirline(address airlineAddress)\n    external\n    isOperational\n    onlyRegisteredAirline\n    hasNotAlreadyVoted(airlineAddress)\n    onlyInQueue(airlineAddress)\n    {\n\n        bool canParticipate;\n        (,,canParticipate,) = flightData.getAirlineData(msg.sender);\n        require(canParticipate, \"Airline has not participated yet\");\n        hasVoted[msg.sender][airlineAddress] = true;\n        votesPerAirline[airlineAddress] = votesPerAirline[airlineAddress].add(1);\n        emit AirlineVoted(msg.sender, airlineAddress);\n    }\n\n    function getAirlineRegistrationStatus(address _airlineAddress)\n    external\n    view\n    isOperational\n    returns(bool)\n    {\n        bool isRegistered;\n        (,isRegistered,,) = flightData.getAirlineData(_airlineAddress);\n        return isRegistered;\n    }\n\n\n    function checkIfVoted(address votingAirline, address votedAirline) \n    external\n    view\n    isOperational\n    returns(bool)\n    {\n        return hasVoted[votingAirline][votedAirline];\n    }\n\n\n    function fundAirline()\n    public\n    payable\n    isOperational\n    onlyRegisteredAirline\n    {\n        //require(amount >= AIRLINE_PARTICIPATION_FEE, \"Make sure you send the correct participation fee\");\n        //address dataContractAddress = address(uint160(address(flightData)));\n        //dataContractAddress.transfer(amount);\n        //flightData.fund(msg.sender, amount);\n        flightData.setParticipationStatus(msg.sender, true);\n        emit AirlineFullyFunded(msg.sender, msg.value);\n    }\n\n   /**\n    * @dev Register a future flight for insuring.\n    *\n    */  \n    function registerFlight(string flightNumber, string timeStamp)\n    external\n    isOperational\n    onlyRegisteredAirline\n    {\n        bool canParticipate;\n        (,,canParticipate,) = flightData.getAirlineData(msg.sender);\n        require(canParticipate, \"Airline is not fully funded and can't participate\");\n        bytes32 key = generateKey(msg.sender, flightNumber, timeStamp);\n        flightData.registerFlight(msg.sender, key, flightNumber, timeStamp, STATUS_CODE_ON_TIME);\n        emit FlightRegistered(msg.sender, flightNumber, timeStamp);\n\n    }\n    \n    function registerPassenger(string _name, address _airlineAddress, string flightNumber, string timeStamp)\n    external\n    payable\n    isOperational\n    addressNotUsed(msg.sender)\n    {\n        bytes32 key = generateKey(_airlineAddress, flightNumber, timeStamp);\n        bool isRegistered;\n        (, isRegistered, , , ) = flightData.getFlightDetails(key);\n        require(isRegistered, \"This flight does not exist\");\n        flightData.registerPassenger(_airlineAddress, _name, msg.sender, key, msg.value);\n        address(flightData).transfer(msg.value);\n        emit PassengerRegistered(msg.sender, _name, _airlineAddress, key);\n    }\n\n\n    function updateFlightStatusCode(address _airlineAddress, string flightNumber, string timeStamp, uint8 _statusCode)\n    external\n    isOperational\n    {      \n        bytes32 key = generateKey(_airlineAddress, flightNumber, timeStamp);\n        bool isRegistered;\n        (, isRegistered, , , ) = flightData.getFlightDetails(key);\n        require(isRegistered, \"This flight does not exist\");\n        flightData.updateFlightStatusCode(key, _statusCode);\n    }\n\n\n    function buyInsurance(address _airlineAddress, string flightNumber, string timeStamp)\n    external\n    payable\n    isOperational\n    onlyRegisteredPassenger\n    {   \n        bytes32 key = generateKey(_airlineAddress, flightNumber, timeStamp);\n        bool isRegistered;\n        (, isRegistered, , , ) = flightData.getFlightDetails(key);\n        require(isRegistered, \"This flight does not exist\");\n        require(!flightData.getInsuranceStatus(msg.sender, key), \"Passenger already insured for the this flight\");\n        require(INSURANCE_PREMIUM == 1 ether, \"Incorrect Insurance premium paid\");\n        address(flightData).transfer(msg.value);\n        flightData.buyInsurance(msg.sender, _airlineAddress, key, msg.value);\n    }\n\n    function checkPassengerInsuranceStatus(address passengerAddress, address _airlineAddress, string flightNumber, string timeStamp)\n    external\n    isOperational\n    onlyRegisteredAirline\n    view\n    returns(bool)\n    {   \n        bytes32 flightKey = generateKey(_airlineAddress, flightNumber, timeStamp);\n        return flightData.checkPassengerInsuranceStatus(passengerAddress, flightKey);\n    }\n\n    // function getFlightsPerAirline(address _airlineAddress)\n    // external\n    // view\n    // isOperational\n    // onlyRegisteredAirline\n    // returns(bytes32[] memory)\n    // {\n    //     mapping(address => bytes32[]) memory map = flightData.flightsPerAirline();\n    //     return map[_airlineAddress];\n    // }\n\n    \n   /**\n    * @dev Called after oracle has updated flight status\n    *\n    */  \n    function processFlightStatus(address airline, string flightNumber, string timestamp, uint8 statusCode, uint8 factor)\n    internal\n    {\n        bytes32 key = generateKey(airline, flightNumber, timestamp);\n        flightData.updateFlightStatusCode(key, statusCode);\n\n        if(statusCode == STATUS_CODE_LATE_AIRLINE){\n            flightData.creditAllInsureesPerFlight(key, factor);\n            oracleResponses[key].isOpen = false;\n        }\n    }\n\n\n    // Generate a request for oracles to fetch flight information\n    function fetchFlightStatus(address airline, string flight, string timestamp)\n    external\n    isOperational\n    onlyContractOwner\n    {\n        uint8 index = getRandomIndex(msg.sender);\n\n        // Generate a unique key for storing the request\n        bytes32 key = keccak256(abi.encodePacked(index, airline, flight, timestamp));\n        oracleResponses[key] = ResponseInfo({\n                                                requester: msg.sender,\n                                                isOpen: true\n                                            });\n\n        emit OracleRequest(index, airline, flight, timestamp);\n    } \n\n\n// region ORACLE MANAGEMENT\n\n    // Incremented to add pseudo-randomness at various points\n    uint8 private nonce = 0;    \n\n    // Fee to be paid when registering oracle\n    uint256 public constant REGISTRATION_FEE = 1 ether;\n\n    // Number of oracles that must respond for valid status\n    uint256 private constant MIN_RESPONSES = 3;\n\n\n    struct Oracle {\n        bool isRegistered;\n        uint8[3] indexes;        \n    }\n\n    // Track all registered oracles\n    mapping(address => Oracle) private oracles;\n\n    // Model for responses from oracles\n    struct ResponseInfo {\n        address requester;                              // Account that requested status\n        bool isOpen;                                    // If open, oracle responses are accepted\n        mapping(uint8 => address[]) responses;          // Mapping key is the status code reported\n                                                        // This lets us group responses and identify\n                                                        // the response that majority of the oracles\n    }\n\n    // Track all oracle responses\n    // Key = hash(index, flight, timestamp)\n    mapping(bytes32 => ResponseInfo) private oracleResponses;\n\n    // Event fired each time an oracle submits a response\n    event FlightStatusInfo(address airline, string flight, string timestamp, uint8 status);\n\n    event OracleReport(address airline, string flight, string timestamp, uint8 status);\n\n    // Event fired when flight status request is submitted\n    // Oracles track this and if they have a matching index\n    // they fetch data and submit a response\n    event OracleRequest(uint8 index, address airline, string flight, string timestamp);\n\n\n    // Register an oracle with the contract\n    function registerOracle()\n    external\n    payable\n    isOperational\n    {\n        // Require registration fee\n        require(msg.value >= REGISTRATION_FEE, \"Registration fee is required\");\n\n        // Check if address has not registered Oracle before\n        require(!oracles[msg.sender].isRegistered, \"Oracle already registered\");\n\n\n        uint8[3] memory indexes = generateIndexes(msg.sender);\n\n        oracles[msg.sender] = Oracle({\n                                        isRegistered: true,\n                                        indexes: indexes\n                                    });\n    }\n\n    function getMyIndexes()\n    view\n    external\n    returns(uint8[3])\n    {\n        require(oracles[msg.sender].isRegistered, \"Not registered as an oracle\");\n\n        return oracles[msg.sender].indexes;\n    }\n\n\n\n\n    // Called by oracle when a response is available to an outstanding request\n    // For the response to be accepted, there must be a pending request that is open\n    // and matches one of the three Indexes randomly assigned to the oracle at the\n    // time of registration (i.e. uninvited oracles are not welcome)\n    function submitOracleResponse(uint8 index, address airline, string flight, string timestamp, uint8 statusCode)\n    external\n    {\n        require((oracles[msg.sender].indexes[0] == index) || (oracles[msg.sender].indexes[1] == index) || (oracles[msg.sender].indexes[2] == index), \"Index does not match oracle request\");\n\n\n        bytes32 key = keccak256(abi.encodePacked(index, airline, flight, timestamp)); \n        require(oracleResponses[key].isOpen, \"Flight or timestamp do not match oracle request\");\n\n        oracleResponses[key].responses[statusCode].push(msg.sender);\n\n        // Information isn't considered verified until at least MIN_RESPONSES\n        // oracles respond with the *** same *** information\n        emit OracleReport(airline, flight, timestamp, statusCode);\n        if (oracleResponses[key].responses[statusCode].length >= MIN_RESPONSES) {\n\n            emit FlightStatusInfo(airline, flight, timestamp, statusCode);\n\n            // Handle flight status as appropriate\n            processFlightStatus(airline, flight, timestamp, statusCode, 50);\n        }\n    }\n\n    // Returns array of three non-duplicating integers from 0-9\n    function generateIndexes(address account)\n    internal\n    returns(uint8[3])\n    {\n        uint8[3] memory indexes;\n        indexes[0] = getRandomIndex(account);\n        \n        indexes[1] = indexes[0];\n        while(indexes[1] == indexes[0]) {\n            indexes[1] = getRandomIndex(account);\n        }\n\n        indexes[2] = indexes[1];\n        while((indexes[2] == indexes[0]) || (indexes[2] == indexes[1])) {\n            indexes[2] = getRandomIndex(account);\n        }\n\n        return indexes;\n    }\n\n    // Returns array of three non-duplicating integers from 0-9\n    function getRandomIndex(address account)\n    internal\n    returns (uint8)\n    {\n        uint8 maxValue = 10;\n\n        // Pseudo random number...the incrementing nonce adds variation\n        uint8 random = uint8(uint256(keccak256(abi.encodePacked(blockhash(block.number - nonce++), account))) % maxValue);\n\n        if (nonce > 250) {\n            nonce = 0;  // Can only fetch blockhashes for last 256 blocks so we adapt\n        }\n\n        return random;\n    }\n\n// endregion\n\n}  ",
  "sourcePath": "C:/Users/hp/Documents/udacity-blockchain-projects/REALPROJECTS/FlightSurety-master/contracts/FlightSuretyApp.sol",
  "compiler": {
    "name": "solc",
    "version": "0.4.26+commit.4563c3fc.Emscripten.clang"
  },
  "schemaVersion": "3.0.0",
  "updatedAt": "2022-03-07T00:25:09.909Z",
  "devdoc": {
    "methods": {
      "getOperationalStatus()": {
        "details": "Get operating status of contract",
        "return": "A bool that is the current operating status"
      },
      "registerAirline(string,address)": {
        "details": "Add an airline to the registration queue    "
      },
      "registerFlight(string,string)": {
        "details": "Register a future flight for insuring.    "
      },
      "setOperatingStatus(bool)": {
        "details": "Sets contract operations on/off    * When operational mode is disabled, all write transactions except for this one will fail"
      }
    }
  },
  "userdoc": {
    "methods": {}
  }
}