{
  "contractName": "FlightSuretyData",
  "abi": [
    {
      "constant": true,
      "inputs": [],
      "name": "numRegisteredFlights",
      "outputs": [
        {
          "name": "",
          "type": "uint256"
        }
      ],
      "payable": false,
      "stateMutability": "view",
      "type": "function"
    },
    {
      "constant": true,
      "inputs": [],
      "name": "numRegisteredAirlines",
      "outputs": [
        {
          "name": "",
          "type": "uint256"
        }
      ],
      "payable": false,
      "stateMutability": "view",
      "type": "function"
    },
    {
      "constant": true,
      "inputs": [],
      "name": "numRegisteredPassengers",
      "outputs": [
        {
          "name": "",
          "type": "uint256"
        }
      ],
      "payable": false,
      "stateMutability": "view",
      "type": "function"
    },
    {
      "inputs": [
        {
          "name": "_airlineName",
          "type": "string"
        }
      ],
      "payable": false,
      "stateMutability": "nonpayable",
      "type": "constructor"
    },
    {
      "payable": true,
      "stateMutability": "payable",
      "type": "fallback"
    },
    {
      "constant": true,
      "inputs": [],
      "name": "getOperationalStatus",
      "outputs": [
        {
          "name": "",
          "type": "bool"
        }
      ],
      "payable": false,
      "stateMutability": "view",
      "type": "function"
    },
    {
      "constant": false,
      "inputs": [
        {
          "name": "mode",
          "type": "bool"
        }
      ],
      "name": "setOperatingStatus",
      "outputs": [],
      "payable": false,
      "stateMutability": "nonpayable",
      "type": "function"
    },
    {
      "constant": false,
      "inputs": [
        {
          "name": "_name",
          "type": "string"
        },
        {
          "name": "_address",
          "type": "address"
        }
      ],
      "name": "registerAirline",
      "outputs": [],
      "payable": false,
      "stateMutability": "nonpayable",
      "type": "function"
    },
    {
      "constant": false,
      "inputs": [
        {
          "name": "airlineAddress",
          "type": "address"
        },
        {
          "name": "key",
          "type": "bytes32"
        },
        {
          "name": "flightNumber",
          "type": "string"
        },
        {
          "name": "timeStamp",
          "type": "string"
        },
        {
          "name": "_statusCode",
          "type": "uint8"
        }
      ],
      "name": "registerFlight",
      "outputs": [],
      "payable": false,
      "stateMutability": "nonpayable",
      "type": "function"
    },
    {
      "constant": false,
      "inputs": [
        {
          "name": "_airlineAddress",
          "type": "address"
        },
        {
          "name": "_name",
          "type": "string"
        },
        {
          "name": "_passengerAddress",
          "type": "address"
        },
        {
          "name": "key",
          "type": "bytes32"
        },
        {
          "name": "amount",
          "type": "uint256"
        }
      ],
      "name": "registerPassenger",
      "outputs": [],
      "payable": true,
      "stateMutability": "payable",
      "type": "function"
    },
    {
      "constant": false,
      "inputs": [
        {
          "name": "key",
          "type": "bytes32"
        },
        {
          "name": "_statusCode",
          "type": "uint8"
        }
      ],
      "name": "updateFlightStatusCode",
      "outputs": [],
      "payable": false,
      "stateMutability": "nonpayable",
      "type": "function"
    },
    {
      "constant": false,
      "inputs": [
        {
          "name": "_airline",
          "type": "address"
        },
        {
          "name": "amount",
          "type": "uint256"
        }
      ],
      "name": "fund",
      "outputs": [],
      "payable": false,
      "stateMutability": "nonpayable",
      "type": "function"
    },
    {
      "constant": false,
      "inputs": [
        {
          "name": "_passengerAddress",
          "type": "address"
        },
        {
          "name": "_airlineAddress",
          "type": "address"
        },
        {
          "name": "key",
          "type": "bytes32"
        },
        {
          "name": "amount",
          "type": "uint256"
        }
      ],
      "name": "buyInsurance",
      "outputs": [],
      "payable": true,
      "stateMutability": "payable",
      "type": "function"
    },
    {
      "constant": false,
      "inputs": [
        {
          "name": "key",
          "type": "bytes32"
        },
        {
          "name": "factor",
          "type": "uint256"
        }
      ],
      "name": "creditAllInsureesPerFlight",
      "outputs": [],
      "payable": false,
      "stateMutability": "nonpayable",
      "type": "function"
    },
    {
      "constant": false,
      "inputs": [],
      "name": "withdraw",
      "outputs": [],
      "payable": true,
      "stateMutability": "payable",
      "type": "function"
    },
    {
      "constant": true,
      "inputs": [],
      "name": "getTotalBalance",
      "outputs": [
        {
          "name": "",
          "type": "uint256"
        }
      ],
      "payable": false,
      "stateMutability": "view",
      "type": "function"
    },
    {
      "constant": true,
      "inputs": [
        {
          "name": "_address",
          "type": "address"
        }
      ],
      "name": "getPassengerData",
      "outputs": [
        {
          "name": "",
          "type": "string"
        },
        {
          "name": "",
          "type": "bool"
        },
        {
          "name": "",
          "type": "uint256"
        }
      ],
      "payable": false,
      "stateMutability": "view",
      "type": "function"
    },
    {
      "constant": true,
      "inputs": [
        {
          "name": "key",
          "type": "bytes32"
        }
      ],
      "name": "getFlightDetails",
      "outputs": [
        {
          "name": "",
          "type": "string"
        },
        {
          "name": "",
          "type": "bool"
        },
        {
          "name": "",
          "type": "uint8"
        },
        {
          "name": "",
          "type": "string"
        },
        {
          "name": "",
          "type": "string"
        }
      ],
      "payable": false,
      "stateMutability": "view",
      "type": "function"
    },
    {
      "constant": true,
      "inputs": [
        {
          "name": "_passengerAddress",
          "type": "address"
        },
        {
          "name": "flighKey",
          "type": "bytes32"
        }
      ],
      "name": "getInsuranceStatus",
      "outputs": [
        {
          "name": "",
          "type": "bool"
        }
      ],
      "payable": false,
      "stateMutability": "view",
      "type": "function"
    },
    {
      "constant": true,
      "inputs": [
        {
          "name": "_airlineAddress",
          "type": "address"
        }
      ],
      "name": "getAirlineData",
      "outputs": [
        {
          "name": "",
          "type": "string"
        },
        {
          "name": "",
          "type": "bool"
        },
        {
          "name": "",
          "type": "bool"
        },
        {
          "name": "",
          "type": "uint256"
        }
      ],
      "payable": false,
      "stateMutability": "view",
      "type": "function"
    },
    {
      "constant": false,
      "inputs": [
        {
          "name": "airlineAddress",
          "type": "address"
        },
        {
          "name": "status",
          "type": "bool"
        }
      ],
      "name": "setParticipationStatus",
      "outputs": [],
      "payable": false,
      "stateMutability": "nonpayable",
      "type": "function"
    },
    {
      "constant": true,
      "inputs": [
        {
          "name": "passengerAddress",
          "type": "address"
        },
        {
          "name": "flightKey",
          "type": "bytes32"
        }
      ],
      "name": "checkPassengerInsuranceStatus",
      "outputs": [
        {
          "name": "",
          "type": "bool"
        }
      ],
      "payable": false,
      "stateMutability": "view",
      "type": "function"
    }
  ],
  "bytecode": "0x60806040526001600060146101000a81548160ff0219169083151502179055503480156200002c57600080fd5b50604051620029603803806200296083398101806040528101908080518201929190505050336000806101000a81548173ffffffffffffffffffffffffffffffffffffffff021916908373ffffffffffffffffffffffffffffffffffffffff16021790555060a060405190810160405280828152602001600115158152602001600015158152602001600081526020013373ffffffffffffffffffffffffffffffffffffffff16815250600460003373ffffffffffffffffffffffffffffffffffffffff1673ffffffffffffffffffffffffffffffffffffffff16815260200190815260200160002060008201518160000190805190602001906200013392919062000217565b5060208201518160010160006101000a81548160ff02191690831515021790555060408201518160010160016101000a81548160ff0219169083151502179055506060820151816002015560808201518160030160006101000a81548173ffffffffffffffffffffffffffffffffffffffff021916908373ffffffffffffffffffffffffffffffffffffffff160217905550905050620001ed60018054620001fa64010000000002620022de179091906401000000009004565b60018190555050620002c6565b600081830190508281101515156200020e57fe5b80905092915050565b828054600181600116156101000203166002900490600052602060002090601f016020900481019282601f106200025a57805160ff19168380011785556200028b565b828001600101855582156200028b579182015b828111156200028a5782518255916020019190600101906200026d565b5b5090506200029a91906200029e565b5090565b620002c391905b80821115620002bf576000816000905550600101620002a5565b5090565b90565b61268a80620002d66000396000f300608060405260043610610112576000357c0100000000000000000000000000000000000000000000000000000000900463ffffffff1680630c982673146101145780630e2c412914610143578063110466ed1461019e57806312b58349146101cd57806318066296146101f8578063325304be1461027e57806336773121146102cd5780633ccfd60b1461039b5780633e7e115c146103a55780634582f2761461053f5780634aa08e98146105a8578063643aff0c146106115780637a5790571461069f5780637b1837de146106ca578063aeec551014610717578063bbb5716a14610752578063be0b2b921461082b578063bf4a7b8714610856578063c6f3e71914610894578063c7a5852c146108bf575b005b34801561012057600080fd5b5061012961092d565b604051808215151515815260200191505060405180910390f35b34801561014f57600080fd5b5061019c600480360381019080803590602001908201803590602001919091929391929390803573ffffffffffffffffffffffffffffffffffffffff169060200190929190505050610943565b005b3480156101aa57600080fd5b506101cb600480360381019080803515159060200190929190505050610b74565b005b3480156101d957600080fd5b506101e2610c55565b6040518082815260200191505060405180910390f35b61027c600480360381019080803573ffffffffffffffffffffffffffffffffffffffff169060200190929190803590602001908201803590602001919091929391929390803573ffffffffffffffffffffffffffffffffffffffff169060200190929190803560001916906020019092919080359060200190929190505050610c74565b005b34801561028a57600080fd5b506102cb600480360381019080803573ffffffffffffffffffffffffffffffffffffffff16906020019092919080351515906020019092919050505061104b565b005b3480156102d957600080fd5b5061030e600480360381019080803573ffffffffffffffffffffffffffffffffffffffff169060200190929190505050611153565b604051808060200184151515158152602001838152602001828103825285818151815260200191508051906020019080838360005b8381101561035e578082015181840152602081019050610343565b50505050905090810190601f16801561038b5780820380516001836020036101000a031916815260200191505b5094505050505060405180910390f35b6103a3611309565b005b3480156103b157600080fd5b506103d460048036038101908080356000191690602001909291905050506113e2565b6040518080602001861515151581526020018560ff1660ff1681526020018060200180602001848103845289818151815260200191508051906020019080838360005b83811015610432578082015181840152602081019050610417565b50505050905090810190601f16801561045f5780820380516001836020036101000a031916815260200191505b50848103835286818151815260200191508051906020019080838360005b8381101561049857808201518184015260208101905061047d565b50505050905090810190601f1680156104c55780820380516001836020036101000a031916815260200191505b50848103825285818151815260200191508051906020019080838360005b838110156104fe5780820151818401526020810190506104e3565b50505050905090810190601f16801561052b5780820380516001836020036101000a031916815260200191505b509850505050505050505060405180910390f35b34801561054b57600080fd5b5061058e600480360381019080803573ffffffffffffffffffffffffffffffffffffffff16906020019092919080356000191690602001909291905050506116cd565b604051808215151515815260200191505060405180910390f35b3480156105b457600080fd5b506105f7600480360381019080803573ffffffffffffffffffffffffffffffffffffffff16906020019092919080356000191690602001909291905050506117e6565b604051808215151515815260200191505060405180910390f35b34801561061d57600080fd5b5061069d600480360381019080803573ffffffffffffffffffffffffffffffffffffffff1690602001909291908035600019169060200190929190803590602001908201803590602001919091929391929390803590602001908201803590602001919091929391929390803560ff1690602001909291905050506118ff565b005b3480156106ab57600080fd5b506106b4611d34565b6040518082815260200191505060405180910390f35b3480156106d657600080fd5b50610715600480360381019080803573ffffffffffffffffffffffffffffffffffffffff16906020019092919080359060200190929190505050611d3a565b005b34801561072357600080fd5b50610750600480360381019080803560001916906020019092919080359060200190929190505050611e3e565b005b34801561075e57600080fd5b50610793600480360381019080803573ffffffffffffffffffffffffffffffffffffffff169060200190929190505050611ec5565b60405180806020018515151515815260200184151515158152602001838152602001828103825286818151815260200191508051906020019080838360005b838110156107ed5780820151818401526020810190506107d2565b50505050905090810190601f16801561081a5780820380516001836020036101000a031916815260200191505b509550505050505060405180910390f35b34801561083757600080fd5b50610840612091565b6040518082815260200191505060405180910390f35b34801561086257600080fd5b506108926004803603810190808035600019169060200190929190803560ff169060200190929190505050612097565b005b3480156108a057600080fd5b506108a961217c565b6040518082815260200191505060405180910390f35b61092b600480360381019080803573ffffffffffffffffffffffffffffffffffffffff169060200190929190803573ffffffffffffffffffffffffffffffffffffffff169060200190929190803560001916906020019092919080359060200190929190505050612182565b005b60008060149054906101000a900460ff16905090565b600060149054906101000a900460ff1615156109ed576040517f08c379a00000000000000000000000000000000000000000000000000000000081526004018080602001828103825260258152602001807f436f6e74726163742069732063757272656e746c79206e6f74206f706572617481526020017f696f6e616c00000000000000000000000000000000000000000000000000000081525060400191505060405180910390fd5b60a06040519081016040528084848080601f0160208091040260200160405190810160405280939291908181526020018383808284378201915050505050508152602001600115158152602001600015158152602001600081526020018273ffffffffffffffffffffffffffffffffffffffff16815250600460008373ffffffffffffffffffffffffffffffffffffffff1673ffffffffffffffffffffffffffffffffffffffff1681526020019081526020016000206000820151816000019080519060200190610abf9291906125b9565b5060208201518160010160006101000a81548160ff02191690831515021790555060408201518160010160016101000a81548160ff0219169083151502179055506060820151816002015560808201518160030160006101000a81548173ffffffffffffffffffffffffffffffffffffffff021916908373ffffffffffffffffffffffffffffffffffffffff160217905550905050610b69600180546122de90919063ffffffff16565b600181905550505050565b6000809054906101000a900473ffffffffffffffffffffffffffffffffffffffff1673ffffffffffffffffffffffffffffffffffffffff163373ffffffffffffffffffffffffffffffffffffffff16141515610c38576040517f08c379a000000000000000000000000000000000000000000000000000000000815260040180806020018281038252601c8152602001807f43616c6c6572206973206e6f7420636f6e7472616374206f776e65720000000081525060200191505060405180910390fd5b80600060146101000a81548160ff02191690831515021790555050565b60003073ffffffffffffffffffffffffffffffffffffffff1631905090565b60008060149054906101000a900460ff161515610d1f576040517f08c379a00000000000000000000000000000000000000000000000000000000081526004018080602001828103825260258152602001807f436f6e74726163742069732063757272656e746c79206e6f74206f706572617481526020017f696f6e616c00000000000000000000000000000000000000000000000000000081525060400191505060405180910390fd5b60806040519081016040528087878080601f01602080910402602001604051908101604052809392919081815260200183838082843782019150505050505081526020018573ffffffffffffffffffffffffffffffffffffffff1681526020016001151581526020016000815250600660008673ffffffffffffffffffffffffffffffffffffffff1673ffffffffffffffffffffffffffffffffffffffff1681526020019081526020016000206000820151816000019080519060200190610de89291906125b9565b5060208201518160010160006101000a81548173ffffffffffffffffffffffffffffffffffffffff021916908373ffffffffffffffffffffffffffffffffffffffff16021790555060408201518160010160146101000a81548160ff02191690831515021790555060608201518160020155905050600460008873ffffffffffffffffffffffffffffffffffffffff1673ffffffffffffffffffffffffffffffffffffffff16815260200190815260200160002060040160008573ffffffffffffffffffffffffffffffffffffffff1673ffffffffffffffffffffffffffffffffffffffff168152602001908152602001600020600084600019166000191681526020019081526020016000205490506007600084600019166000191681526020019081526020016000208490806001815401808255809150509060018203906000526020600020016000909192909190916101000a81548173ffffffffffffffffffffffffffffffffffffffff021916908373ffffffffffffffffffffffffffffffffffffffff16021790555050610f8a82826122de90919063ffffffff16565b600460008973ffffffffffffffffffffffffffffffffffffffff1673ffffffffffffffffffffffffffffffffffffffff16815260200190815260200160002060040160008673ffffffffffffffffffffffffffffffffffffffff1673ffffffffffffffffffffffffffffffffffffffff168152602001908152602001600020600085600019166000191681526020019081526020016000208190555061103c60016002546122de90919063ffffffff16565b60028190555050505050505050565b600060149054906101000a900460ff1615156110f5576040517f08c379a00000000000000000000000000000000000000000000000000000000081526004018080602001828103825260258152602001807f436f6e74726163742069732063757272656e746c79206e6f74206f706572617481526020017f696f6e616c00000000000000000000000000000000000000000000000000000081525060400191505060405180910390fd5b80600460008473ffffffffffffffffffffffffffffffffffffffff1673ffffffffffffffffffffffffffffffffffffffff16815260200190815260200160002060010160016101000a81548160ff0219169083151502179055505050565b606060008060008060149054906101000a900460ff161515611203576040517f08c379a00000000000000000000000000000000000000000000000000000000081526004018080602001828103825260258152602001807f436f6e74726163742069732063757272656e746c79206e6f74206f706572617481526020017f696f6e616c00000000000000000000000000000000000000000000000000000081525060400191505060405180910390fd5b600660008673ffffffffffffffffffffffffffffffffffffffff1673ffffffffffffffffffffffffffffffffffffffff1681526020019081526020016000209050806000018160010160149054906101000a900460ff168260020154828054600181600116156101000203166002900480601f0160208091040260200160405190810160405280929190818152602001828054600181600116156101000203166002900480156112f45780601f106112c9576101008083540402835291602001916112f4565b820191906000526020600020905b8154815290600101906020018083116112d757829003601f168201915b50505050509250935093509350509193909250565b60003390508073ffffffffffffffffffffffffffffffffffffffff166108fc600660003373ffffffffffffffffffffffffffffffffffffffff1673ffffffffffffffffffffffffffffffffffffffff168152602001908152602001600020600201549081150290604051600060405180830381858888f19350505050158015611396573d6000803e3d6000fd5b506000600660003373ffffffffffffffffffffffffffffffffffffffff1673ffffffffffffffffffffffffffffffffffffffff1681526020019081526020016000206002018190555050565b606060008060608060008060149054906101000a900460ff161515611495576040517f08c379a00000000000000000000000000000000000000000000000000000000081526004018080602001828103825260258152602001807f436f6e74726163742069732063757272656e746c79206e6f74206f706572617481526020017f696f6e616c00000000000000000000000000000000000000000000000000000081525060400191505060405180910390fd5b6005600088600019166000191681526020019081526020016000209050806000018160010160009054906101000a900460ff168260010160019054906101000a900460ff168360020184600301600001848054600181600116156101000203166002900480601f01602080910402602001604051908101604052809291908181526020018280546001816001161561010002031660029004801561157a5780601f1061154f5761010080835404028352916020019161157a565b820191906000526020600020905b81548152906001019060200180831161155d57829003601f168201915b50505050509450818054600181600116156101000203166002900480601f0160208091040260200160405190810160405280929190818152602001828054600181600116156101000203166002900480156116165780601f106115eb57610100808354040283529160200191611616565b820191906000526020600020905b8154815290600101906020018083116115f957829003601f168201915b50505050509150808054600181600116156101000203166002900480601f0160208091040260200160405190810160405280929190818152602001828054600181600116156101000203166002900480156116b25780601f10611687576101008083540402835291602001916116b2565b820191906000526020600020905b81548152906001019060200180831161169557829003601f168201915b50505050509050955095509550955095505091939590929450565b60008060149054906101000a900460ff161515611778576040517f08c379a00000000000000000000000000000000000000000000000000000000081526004018080602001828103825260258152602001807f436f6e74726163742069732063757272656e746c79206e6f74206f706572617481526020017f696f6e616c00000000000000000000000000000000000000000000000000000081525060400191505060405180910390fd5b600860008473ffffffffffffffffffffffffffffffffffffffff1673ffffffffffffffffffffffffffffffffffffffff1681526020019081526020016000206000836000191660001916815260200190815260200160002060009054906101000a900460ff16905092915050565b60008060149054906101000a900460ff161515611891576040517f08c379a00000000000000000000000000000000000000000000000000000000081526004018080602001828103825260258152602001807f436f6e74726163742069732063757272656e746c79206e6f74206f706572617481526020017f696f6e616c00000000000000000000000000000000000000000000000000000081525060400191505060405180910390fd5b600860008473ffffffffffffffffffffffffffffffffffffffff1673ffffffffffffffffffffffffffffffffffffffff1681526020019081526020016000206000836000191660001916815260200190815260200160002060009054906101000a900460ff16905092915050565b600060149054906101000a900460ff1615156119a9576040517f08c379a00000000000000000000000000000000000000000000000000000000081526004018080602001828103825260258152602001807f436f6e74726163742069732063757272656e746c79206e6f74206f706572617481526020017f696f6e616c00000000000000000000000000000000000000000000000000000081525060400191505060405180910390fd5b60a06040519081016040528086868080601f01602080910402602001604051908101604052809392919081815260200183838082843782019150505050505081526020016001151581526020018260ff16815260200184848080601f0160208091040260200160405190810160405280939291908181526020018383808284378201915050505050508152602001600460008a73ffffffffffffffffffffffffffffffffffffffff1673ffffffffffffffffffffffffffffffffffffffff16815260200190815260200160002060a06040519081016040529081600082018054600181600116156101000203166002900480601f016020809104026020016040519081016040528092919081815260200182805460018160011615610100020316600290048015611b1b5780601f10611af057610100808354040283529160200191611b1b565b820191906000526020600020905b815481529060010190602001808311611afe57829003601f168201915b505050505081526020016001820160009054906101000a900460ff161515151581526020016001820160019054906101000a900460ff16151515158152602001600282015481526020016003820160009054906101000a900473ffffffffffffffffffffffffffffffffffffffff1673ffffffffffffffffffffffffffffffffffffffff1673ffffffffffffffffffffffffffffffffffffffff16815250508152506005600088600019166000191681526020019081526020016000206000820151816000019080519060200190611bf49291906125b9565b5060208201518160010160006101000a81548160ff02191690831515021790555060408201518160010160016101000a81548160ff021916908360ff1602179055506060820151816002019080519060200190611c529291906125b9565b506080820151816003016000820151816000019080519060200190611c789291906125b9565b5060208201518160010160006101000a81548160ff02191690831515021790555060408201518160010160016101000a81548160ff0219169083151502179055506060820151816002015560808201518160030160006101000a81548173ffffffffffffffffffffffffffffffffffffffff021916908373ffffffffffffffffffffffffffffffffffffffff1602179055505050905050611d2560016003546122de90919063ffffffff16565b60038190555050505050505050565b60035481565b600060149054906101000a900460ff161515611de4576040517f08c379a00000000000000000000000000000000000000000000000000000000081526004018080602001828103825260258152602001807f436f6e74726163742069732063757272656e746c79206e6f74206f706572617481526020017f696f6e616c00000000000000000000000000000000000000000000000000000081525060400191505060405180910390fd5b611e3981600460008573ffffffffffffffffffffffffffffffffffffffff1673ffffffffffffffffffffffffffffffffffffffff168152602001908152602001600020600201546122de90919063ffffffff16565b505050565b6000806007600085600019166000191681526020019081526020016000209150600090505b8180549050811015611ebf57611eb28282815481101515611e8057fe5b9060005260206000200160009054906101000a900473ffffffffffffffffffffffffffffffffffffffff1685856122fa565b8080600101915050611e63565b50505050565b6060600080600080600060149054906101000a900460ff161515611f77576040517f08c379a00000000000000000000000000000000000000000000000000000000081526004018080602001828103825260258152602001807f436f6e74726163742069732063757272656e746c79206e6f74206f706572617481526020017f696f6e616c00000000000000000000000000000000000000000000000000000081525060400191505060405180910390fd5b600460008773ffffffffffffffffffffffffffffffffffffffff1673ffffffffffffffffffffffffffffffffffffffff1681526020019081526020016000209050806000018160010160009054906101000a900460ff168260010160019054906101000a900460ff168360020154838054600181600116156101000203166002900480601f01602080910402602001604051908101604052809291908181526020018280546001816001161561010002031660029004801561207a5780601f1061204f5761010080835404028352916020019161207a565b820191906000526020600020905b81548152906001019060200180831161205d57829003601f168201915b505050505093509450945094509450509193509193565b60015481565b600060149054906101000a900460ff161515612141576040517f08c379a00000000000000000000000000000000000000000000000000000000081526004018080602001828103825260258152602001807f436f6e74726163742069732063757272656e746c79206e6f74206f706572617481526020017f696f6e616c00000000000000000000000000000000000000000000000000000081525060400191505060405180910390fd5b8060056000846000191660001916815260200190815260200160002060010160016101000a81548160ff021916908360ff1602179055505050565b60025481565b600060149054906101000a900460ff16151561222c576040517f08c379a00000000000000000000000000000000000000000000000000000000081526004018080602001828103825260258152602001807f436f6e74726163742069732063757272656e746c79206e6f74206f706572617481526020017f696f6e616c00000000000000000000000000000000000000000000000000000081525060400191505060405180910390fd5b6122d781600460008673ffffffffffffffffffffffffffffffffffffffff1673ffffffffffffffffffffffffffffffffffffffff16815260200190815260200160002060040160008773ffffffffffffffffffffffffffffffffffffffff1673ffffffffffffffffffffffffffffffffffffffff16815260200190815260200160002060008560001916600019168152602001908152602001600020546122de90919063ffffffff16565b5050505050565b600081830190508281101515156122f157fe5b80905092915050565b60008383600860008373ffffffffffffffffffffffffffffffffffffffff1673ffffffffffffffffffffffffffffffffffffffff1681526020019081526020016000206000826000191660001916815260200190815260200160002060009054906101000a900460ff1615156123d8576040517f08c379a000000000000000000000000000000000000000000000000000000000815260040180806020018281038252601d8152602001807f546869732070617373656e676572206973206e6f7420696e737572656400000081525060200191505060405180910390fd5b61248384600460003373ffffffffffffffffffffffffffffffffffffffff1673ffffffffffffffffffffffffffffffffffffffff16815260200190815260200160002060040160008973ffffffffffffffffffffffffffffffffffffffff1673ffffffffffffffffffffffffffffffffffffffff168152602001908152602001600020600088600019166000191681526020019081526020016000205461258190919063ffffffff16565b92506000600460003373ffffffffffffffffffffffffffffffffffffffff1673ffffffffffffffffffffffffffffffffffffffff16815260200190815260200160002060040160008873ffffffffffffffffffffffffffffffffffffffff1673ffffffffffffffffffffffffffffffffffffffff168152602001908152602001600020600087600019166000191681526020019081526020016000208190555061257883600660008973ffffffffffffffffffffffffffffffffffffffff1673ffffffffffffffffffffffffffffffffffffffff168152602001908152602001600020600201546122de90919063ffffffff16565b50505050505050565b60008083141561259457600090506125b3565b81830290508183828115156125a557fe5b041415156125af57fe5b8090505b92915050565b828054600181600116156101000203166002900490600052602060002090601f016020900481019282601f106125fa57805160ff1916838001178555612628565b82800160010185558215612628579182015b8281111561262757825182559160200191906001019061260c565b5b5090506126359190612639565b5090565b61265b91905b8082111561265757600081600090555060010161263f565b5090565b905600a165627a7a7230582097f84dae90ebf5798a4b5ea02f411ef8bfdc722e86177821ecae5ed0ba7196040029",
  "source": "pragma solidity ^0.4.25;\n\nimport \"../node_modules/openzeppelin-solidity/contracts/math/SafeMath.sol\";\n\ncontract FlightSuretyData {\n    using SafeMath for uint256;\n\n    /********************************************************************************************/\n    /*                                       DATA VARIABLES                                     */\n    /********************************************************************************************/\n\n    address private contractOwner;                                      // Account used to deploy contract\n    bool private operational = true;                                    // Blocks all state changes throughout the contract if false\n    uint256 public numRegisteredAirlines;\n    uint256 public numRegisteredPassengers;\n    uint256 public numRegisteredFlights;\n\n    struct Airline {\n        string name;\n        bool isRegistered;\n        bool canParticipate;\n        uint256 funds;\n        address airlineAddress;\n        mapping(address => mapping(bytes32 => uint256)) balances;     // Maps passenger address to money spent on each flight\n        //bytes32[] flights;                                             // List of scheduled flights per airline\n    }\n\n    struct Flight {\n        string number;\n        bool isRegistered;\n        uint8 statusCode;\n        string updatedTimeStamp;        \n        Airline airline;\n        //address[] passengers;\n    }\n\n    struct Passenger {\n        string name;\n        address passengerAddress;\n        bool isRegistered;\n        uint256 credit;\n    }\n    mapping(address => Airline) private airlines;\n    mapping(bytes32 => Flight) private flights;\n    mapping(address => Passenger) private passengers;\n    mapping(bytes32 => address[]) private passengersPerFlight;\n    mapping(address => mapping(bytes32 => bool)) private isInsured;\n    //mapping(address => bytes32[]) public flightsPerAirline;\n\n\n    /********************************************************************************************/\n    /*                                       EVENT DEFINITIONS                                  */\n    /********************************************************************************************/\n\n\n    /**\n    * @dev Constructor\n    *      The deploying account becomes contractOwner\n    */\n    constructor(string _airlineName) \n    public \n    {\n        contractOwner = msg.sender;\n        airlines[msg.sender] = Airline({\n                                        name: _airlineName,\n                                        isRegistered: true,\n                                        canParticipate: false,\n                                        funds: 0,\n                                        airlineAddress: msg.sender\n                                     });\n        numRegisteredAirlines = numRegisteredAirlines.add(1);\n    }\n\n    /********************************************************************************************/\n    /*                                       FUNCTION MODIFIERS                                 */\n    /********************************************************************************************/\n\n    // Modifiers help avoid duplication of code. They are typically used to validate something\n    // before a function is allowed to be executed.\n\n    /**\n    * @dev Modifier that requires the \"operational\" boolean variable to be \"true\"\n    *      This is used on all state changing functions to pause the contract in \n    *      the event there is an issue that needs to be fixed\n    */\n    modifier isOperational() \n    {\n        require(operational, \"Contract is currently not operational\");\n        _;  // All modifiers require an \"_\" which indicates where the function body will be added\n    }\n\n    /**\n    * @dev Modifier that requires the \"ContractOwner\" account to be the function caller\n    */\n    modifier onlyContractOwner()\n    {\n        require(msg.sender == contractOwner, \"Caller is not contract owner\");\n        _;\n    }\n\n    modifier onlyInsuredPassenger(address _passengerAddress, bytes32 key){\n        require(isInsured[_passengerAddress][key], \"This passenger is not insured\");\n        _;\n    }\n\n\n\n    /********************************************************************************************/\n    /*                                       UTILITY FUNCTIONS                                  */\n    /********************************************************************************************/\n\n    /**\n    * @dev Get operating status of contract\n    *\n    * @return A bool that is the current operating status\n    */      \n    function getOperationalStatus() \n    public \n    view \n    returns(bool) \n    {\n        return operational;\n    }\n\n\n    /**\n    * @dev Sets contract operations on/off\n    *\n    * When operational mode is disabled, all write transactions except for this one will fail\n    */    \n    function setOperatingStatus(bool mode) \n    external\n    onlyContractOwner \n    {\n        operational = mode;\n    }\n\n    /**\n    /********************************************************************************************/\n    /*                                     SMART CONTRACT FUNCTIONS                             */\n    /********************************************************************************************/\n\n   /**\n    * @dev Add an airline to the registration queue\n    *      Can only be called from FlightSuretyApp contract\n    *\n    */   \n    function registerAirline(string _name, address _address)\n    external\n    isOperational\n    {       \n        airlines[_address] = Airline({\n                                        name: _name,\n                                        isRegistered: true,\n                                        canParticipate: false,\n                                        funds: 0,\n                                        airlineAddress: _address\n                                     });\n        numRegisteredAirlines = numRegisteredAirlines.add(1);\n    }\n\n   /**\n    * @dev Add an airline to the registration queue\n    *      Can only be called from FlightSuretyApp contract\n    *\n    */   \n\n    function registerFlight(address airlineAddress, bytes32 key, string flightNumber, string timeStamp, uint8 _statusCode)\n    external\n    isOperational\n    {\n        flights[key] = Flight({\n                                number: flightNumber,\n                                isRegistered: true,\n                                statusCode: _statusCode,\n                                updatedTimeStamp: timeStamp,\n                                airline: airlines[airlineAddress]\n                                });\n        //airlines[airlineAddress].flights.push(key);\n        //flightsPerAirline[airlineAddress].push(key);\n        numRegisteredFlights = numRegisteredFlights.add(1);\n    }\n\n    function registerPassenger(address _airlineAddress, string _name, address _passengerAddress, bytes32 key, uint256 amount)\n    external\n    payable\n    isOperational\n    { \n        passengers[_passengerAddress] = Passenger({\n                                        name: _name,\n                                        passengerAddress: _passengerAddress,\n                                        isRegistered: true,\n                                        credit: 0\n                                        \n                                     });\n        uint256 balance = airlines[_airlineAddress].balances[_passengerAddress][key];\n        passengersPerFlight[key].push(_passengerAddress);\n        //flights[key].passengers.push(_passengerAddress);\n        airlines[_airlineAddress].balances[_passengerAddress][key] = balance.add(amount);\n        numRegisteredPassengers = numRegisteredPassengers.add(1);\n    }\n\n\n\n    function updateFlightStatusCode(bytes32 key, uint8 _statusCode)\n    external\n    isOperational\n    {      \n        flights[key].statusCode = _statusCode;\n\n    }\n\n       /**\n    * @dev Initial funding for the insurance. Unless there are too many delayed flights\n    *      resulting in insurance payouts, the contract should be self-sustaining\n    *\n    */   \n    function fund(address _airline, uint256 amount)\n    external\n    isOperational\n    {\n        airlines[_airline].funds.add(amount);\n    }\n\n   /**\n    * @dev Buy insurance for a flight\n    *\n    */   \n    function buyInsurance(address _passengerAddress, address _airlineAddress, bytes32 key, uint256 amount)\n    external\n    payable\n    isOperational\n    {\n        airlines[_airlineAddress].balances[_passengerAddress][key].add(amount);\n    }\n\n    /**\n     *  @dev Credits payouts to insuree\n    */\n    function creditInsuree(address _passengerAddress, bytes32 key, uint factor) \n    internal\n    onlyInsuredPassenger(_passengerAddress, key)\n    {\n        uint256 _credit = airlines[msg.sender].balances[_passengerAddress][key].mul(factor);\n        airlines[msg.sender].balances[_passengerAddress][key] = 0;\n        passengers[_passengerAddress].credit.add(_credit);\n    }\n\n    function creditAllInsureesPerFlight(bytes32 key, uint factor) \n    external\n    {\n        address[] storage listOfPassengersAddress = passengersPerFlight[key];\n        for (uint i=0; i < listOfPassengersAddress.length; i++) {\n            creditInsuree(listOfPassengersAddress[i], key, factor);\n        }\n    }\n    \n    /**\n     *  @dev Transfers eligible payout funds to insuree\n     *\n    */\n    function withdraw()\n    external\n    payable\n    {\n        address targetAddress = msg.sender;\n        targetAddress.transfer(passengers[msg.sender].credit);\n        passengers[msg.sender].credit = 0;\n    }\n\n    /**\n    * @dev Fallback function for funding smart contract.\n    *\n    */\n    function() \n    external \n    payable \n    {\n\n    }\n\n    function getTotalBalance()\n    external\n    view\n    returns(uint256)\n    {\n        return address(this).balance;\n    }\n\n    function getPassengerData(address _address) \n    external \n    view  \n    isOperational \n    returns(string, bool, uint256)\n    {\n        Passenger storage passenger = passengers[_address];\n        return (passenger.name, passenger.isRegistered, passenger.credit);\n    }\n\n    function getFlightDetails(bytes32 key) \n    external \n    view  \n    isOperational \n    returns(string, bool, uint8, string, string)\n    {\n        Flight storage flight = flights[key];\n        return (flight.number, \n                flight.isRegistered, \n                flight.statusCode, \n                flight.updatedTimeStamp,\n                flight.airline.name);\n    }\n\n    function getInsuranceStatus(address _passengerAddress, bytes32 flighKey) \n    external \n    view  \n    isOperational \n    returns(bool)\n    {\n        return isInsured[_passengerAddress][flighKey];\n    }\n\n    function getAirlineData(address _airlineAddress)\n    external\n    view\n    isOperational\n    returns(string, bool, bool, uint256)\n    {\n        Airline storage airline = airlines[_airlineAddress];\n        return(airline.name, airline.isRegistered, airline.canParticipate, airline.funds);\n\n    }\n\n\n    function setParticipationStatus(address airlineAddress, bool status) \n    external \n    isOperational\n    {\n        airlines[airlineAddress].canParticipate = status;\n    }\n\n    function checkPassengerInsuranceStatus(address passengerAddress, bytes32 flightKey)\n    external\n    isOperational\n    view\n    returns(bool)\n    {\n        return isInsured[passengerAddress][flightKey];\n    }\n\n\n}\n\n",
  "sourcePath": "C:\\Users\\hp\\Documents\\udacity-blockchain-projects\\REALPROJECTS\\FlightSurety-master\\contracts\\FlightSuretyData.sol",
  "compiler": {
    "name": "solc",
    "version": "0.4.26+commit.4563c3fc.Emscripten.clang"
  },
  "schemaVersion": "3.0.0",
  "updatedAt": "2022-03-07T00:25:09.886Z",
  "devdoc": {
    "methods": {
      "buyInsurance(address,address,bytes32,uint256)": {
        "details": "Buy insurance for a flight    "
      },
      "fund(address,uint256)": {
        "details": "Initial funding for the insurance. Unless there are too many delayed flights     resulting in insurance payouts, the contract should be self-sustaining    "
      },
      "getOperationalStatus()": {
        "details": "Get operating status of contract",
        "return": "A bool that is the current operating status"
      },
      "registerAirline(string,address)": {
        "details": "Add an airline to the registration queue     Can only be called from FlightSuretyApp contract    "
      },
      "registerFlight(address,bytes32,string,string,uint8)": {
        "details": "Add an airline to the registration queue     Can only be called from FlightSuretyApp contract    "
      },
      "setOperatingStatus(bool)": {
        "details": "Sets contract operations on/off    * When operational mode is disabled, all write transactions except for this one will fail"
      },
      "withdraw()": {
        "details": "Transfers eligible payout funds to insuree    "
      }
    }
  },
  "userdoc": {
    "methods": {}
  }
}